:020000040800F2
:1000000000500020D5300008E1120008E31200087B
:10001000E5120008E7120008E912000800000000DD
:10002000000000000000000000000000EB120008CB
:10003000ED12000800000000EF120008F1120008A5
:100040001D3100081D3100081D3100081D31000858
:100050001D3100081D3100081D3100081D31000848
:100060001D3100081D3100081D310008F91200087B
:100070001D3100081D3100081D3100081D31000828
:100080001D3100081D3100081D3100081D31000818
:100090001D3100081D3100081D3100081D31000808
:1000A0001D3100081D3100081D3100081D310008F8
:1000B0001D3100081D3100081D3100081D310008E8
:1000C0001D3100081D3100081D3100081D310008D8
:1000D0001D3100081D3100081D3100081D310008C8
:1000E0001D3100081D3100081D310008000000000E
:1000F0000000000000000000000000000000000000
:0C01000000000000000000005FF808F1A3
:10010C000348044B834202D0034B03B1184770479A
:10011C007000002070000020000000000548064917
:10012C000B1AD90F01EBA301491002D0034B03B1F9
:10013C00184770477000002070000020000000007D
:10014C0010B5064C237843B9FFF7DAFF044B13B113
:10015C000448AFF300800123237010BD7000002011
:10016C00000000002031000808B5044B1BB1044905
:10017C000448AFF30080BDE80840CFE70000000062
:10018C007400002020310008014B1868704700BF34
:10019C000000002070B50D4E0D4D761BB61006D02C
:1001AC00002455F8043B01349847A642F9D1094E76
:1001BC00094D02F0AFFF761BB61006D0002455F89F
:1001CC00043B01349847A642F9D170BDBC310008FC
:1001DC00BC310008C0310008BC310008830730B5C1
:1001EC0048D0541E002A3FD00346CAB201E0013C5D
:1001FC003AD303F8012B9D07F9D1032C2DD9CDB29D
:10020C0045EA05250F2C45EA054536D9A4F110021F
:10021C0022F00F0C03F1200EE6444FEA121C03F1FE
:10022C00100242E9045542E9025510327245F8D1E8
:10023C000CF1010214F00C0F03EB021204F00F0C82
:10024C0013D0ACF1040323F003030433134442F83A
:10025C00045B9342FBD10CF003042CB1CAB21C44D6
:10026C0003F8012B9C42FBD130BD64461346002C95
:10027C00F4D1F9E703461446BFE71A46A446E0E773
:10028C0008B410B5002A04469DB031DB4FF402735C
:10029C004FF6FF7CADF814300291069120AB15D0CF
:1002AC00013A0492079202A91F9A0193ADF816C065
:1002BC0000F046F9421C01DA8B2323600022029BDA
:1002CC001A701DB0BDE8104001B07047049207923F
:1002DC0002A91F9A0193ADF816C000F031F9431C26
:1002EC0001DA8B2323601DB0BDE8104001B07047CC
:1002FC008B234FF0FF302360F5E700BF0CB410B533
:10030C001E4B00291C689CB033DB4FF402734FF674
:10031C00FF7CADF81430029006901FAB16D001395B
:10032C001E9A04910791204602A90193ADF816C0BC
:10033C0000F006F9421C01DA8B2323600022029B99
:10034C001A701CB0BDE8104002B0704704910791C0
:10035C0020461E9A02A90193ADF816C000F0F0F8E1
:10036C00431C01DA8B2323601CB0BDE8104002B0A3
:10037C0070478B234FF0FF302360F5E7000000201F
:10038C002DE9F0478F680C469F421D46164638D81B
:10039C008246888910F4906F0ED13D4608682A4633
:1003AC00314600F091FC0020A2682368D21B2B443C
:1003BC00A2602360BDE8F0874B69096903EB430831
:1003CC00236808EBD878A3EB01096B1C4FEA68088B
:1003DC004B444345424684BF98464246430513D599
:1003EC001146504600F052FD074608B34A462169B3
:1003FC0000F0F4FBA38923F4906343F08003A38102
:10040C0007E01F460868CAE7504600F09BFD074608
:10041C0050B107EB0900A8EB09032761C4F814805D
:10042C002F46A3602060BAE75046216900F0C8FC53
:10043C000C23CAF80030A3894FF0FF3043F040037F
:10044C00A381B7E72DE9F04F9368914683B0002B59
:10045C006ED0176880460C4608688D68083744E0F3
:10046C00B4F80CC01CF4906F2ED0D4E90413451AC8
:10047C0003EB430303EBD373AA194FEA630A531C30
:10048C005345524684BF9A4652461CF4806F36D070
:10049C001146404600F0FAFC00283AD02A46216961
:1004AC00019000F09BFBA289019B22F4906242F028
:1004BC008002A2815819AAEB0505A560C4F814A006
:1004CC003546B246236120605946524600F0FCFB8B
:1004DC00D9F80830A16820684D1B50449E1BA560BC
:1004EC002060C9F808601EB3083757E902B6002E21
:1004FC00FAD0B542AA46B3D93546B246E4E74046EF
:10050C0000F020FD03460028D4D14046216900F0BC
:10051C0057FC0C2300224FF0FF30C8F80030A389A1
:10052C0043F04003A381C9E9012203B0BDE8F08F79
:10053C0000231846C9F8043003B0BDE8F08F00BFA3
:10054C002DE9F04F1C468B890F461D0680469246BE
:10055C009DB003D50B69002B00F0F38000230993A9
:10056C00302320228DF82A309AF80030039401258C
:10057C007B4C8DF82920002B76D0D14603E019F85E
:10058C00013F002B79D0252BF9D1B9EB0A0B77D190
:10059C0099F80020002A67D000234FF0FF3209F1B0
:1005AC000109CDE90523049307938DF853301A9371
:1005BC0004E0001B05FA00F018430490CA4605221B
:1005CC00204619F8011B00F0C1FA049B0028F0D159
:1005DC00D80644BF20228DF85320190748BF2B2280
:1005EC009AF8001048BF8DF853202A2956D1039A47
:1005FC0011680432002903927EDB07919AF80110EE
:10060C000AF1010A2E295BD0DFF8589103224846E3
:10061C0000F09CFA48B14022049BA0EB090002FABE
:10062C0000F003430AF1010A04931AF8011B062295
:10063C004D488DF8281000F089FA002862D04B4BF9
:10064C00002B52D003A900913A464046484B04A9CE
:10065C00AFF300800646721C06D0099B3344099305
:10066C009AF80030002B88D1BB895B064CBF4FF049
:10067C00FF3009981DB0BDE8F08FB9EB0A0BF3D031
:10068C005B46524639464046FFF77AFE0130EBD0C6
:10069C00099B99F800205B4409937BE7A1F1300298
:1006AC00092AAFD8079B1AF8011F03EB830302EB4F
:1006BC004303A1F13002092AF5D92E290793A3D1BE
:1006CC009AF801102A2927D1039B0AF102001A6813
:1006DC000433002A0393B8BF4FF0FF339AF802108B
:1006EC0005928246B8BF05938EE7039B073323F030
:1006FC00070308330393B0E7494243F00203079121
:10070C0004937BE703A900913A464046184B04A991
:10071C0000F0C6F806469EE70023A1F13002092A34
:10072C000AF1010A05933FF66FAF1AF8011F03EBAC
:10073C00830302EB4303A1F13002092AF5D9059397
:10074C0062E7402100F0A2FB3860386110B1402311
:10075C007B6103E70C234FF0FF30C8F8003089E7CA
:10076C0080310008883100088C310008000000003E
:10077C008D0300082DE9F04791461E460A698B68E7
:10078C000C469A42B8BF1A46C9F8002091F843307B
:10079C000546DDF8208013B10132C9F8002022682B
:1007AC0091065DD5D9F800300233C9F800302268C3
:1007BC0012F0060F11461ED1E168CB1A002BD8BFE0
:1007CC00114618DD002704F1190A06E0D9F80030AB
:1007DC00E268A2EB030CBC450CDD0123524631460A
:1007EC002846C047013007F10107EFD14FF0FF3029
:1007FC00BDE8F087216894F84330003B18BF012313
:10080C008A060AD53021E21882F8431094F8451074
:10081C005A1C2244023382F843103146284604F114
:10082C004302C0470130E1D0236803F00603042BD8
:10083C001DD0A3682269934225DD00279B1A1F4413
:10084C0004F11A09002401E0BC421CDA01234A46D7
:10085C0031462846C047013004F10104F4D1C5E704
:10086C0012F0060F12D0003B18BF0123D5E7D9F8C0
:10087C000030E1682269C91AA36821EAE177934242
:10088C00DCDC0029DCDC0020BDE8F087E168D9F86D
:10089C000030CB1A002BD8BF114693DCABE700BF5E
:1008AC002DE9F04317460A7E85B00C46064698465D
:1008BC000C9D01F1430C002A33D0A2F15803D9B29C
:1008CC00202967D8202B65D8DFE813F0DD00640001
:1008DC0064006400640064006400640064006400EC
:1008EC006400A3006E0064006400640064006E0089
:1008FC00640064006400640021007F00BF00640099
:10090C006400AE0064007F0064006400E4002368AF
:10091C001A0640F102812B686269191D29601B6857
:10092C001A600023E14623613B4621463046CDF850
:10093C00008003AAFFF71EFF013020D04A4639463B
:10094C0030462369C047013019D02368E0689B0703
:10095C00039919D5431A002B16DD002504F119094A
:10096C0004E0E0680399431AAB420DDD01234A46CB
:10097C0039463046C047013005F10105F1D14FF041
:10098C00FF3005B0BDE8F0838842B8BF084605B01B
:10099C00BDE8F083012384F8422004F1420923616D
:1009AC00002384F84330BFE72368190602D45A06A3
:1009BC0000F1BF8029680A68043129601146002AB9
:1009CC006ADB0A25DFF87CE110E02368180640F1A9
:1009DC009A802B68191D296019686F2A0CBF08258D
:1009EC000A25DFF860E1002384F843306268002AAE
:1009FC00A2607DDB236823F004032360002959D116
:100A0C00002A77D1E146082D63D0ACEB09032361B2
:100A1C008AE701222B6804F14209196804332B6020
:100A2C0084F842102261BBE72B6800211A1D2A6052
:100A3C00D3F800906268484600F088F800287FD010
:100A4C00A0EB090060602061AAE7236843F0200353
:100A5C0023607822DFF8F0E084F845202A68111D25
:100A6C002960190642D45D0640D51188D80744BFC9
:100A7C0043F020032360002943D12368102523F081
:100A8C0020032360AFE75823DFF8B8E084F8453043
:100A9C002368E3E72368DCE72D2284F843206268AF
:100AAC004942002AA26002DB23F0040323600A25DA
:100ABC00DFF890E0E146B1FBF5F30A4605FB1310B5
:100ACC0019461EF80030AA4209F8013DF3D2082D50
:100ADC009BD12368D90798D5626823699A4294DC24
:100AEC00302309F1FF3989F800308EE71168BDE732
:100AFC000029DFD19EF8003004F1420984F842301D
:100B0C0081E710256FE713F0400F2B6803F1040108
:100B1C0029600CBF196819885FE713F0400F2B6828
:100B2C00626903F1040129601B6814BF1A801A6002
:100B3C00F7E62A68B2F9001004322A600A463EE74A
:100B4C00606880E794310008A83100085FFA81FCE6
:100B5C00810710D00346511E2AB90AE09A0718469D
:100B6C000AD0013905D3184613F8012B6245F5D18B
:100B7C00704700207047114603290CD80029F8D083
:100B8C000346014401E08B42F3D0184613F8012BC5
:100B9C006245F8D1ECE7024610B54CEA0C2444EA65
:100BAC0004441046036804326340A3F1013E2EEA6C
:100BBC00030313F0803F04D1043903291046F0D805
:100BCC0051B10346014401E08B4205D0184613F89D
:100BDC00012B6245F8D110BD002010BD844641EABE
:100BEC00000313F0030349D1403A23D30B6803608D
:100BFC004B6843608B688360CB68C3600B6903618F
:100C0C004B6943618B698361CB69C3610B6A036276
:100C1C004B6A43628B6A8362CB6AC3620B6B03635E
:100C2C004B6B43638B6B8363CB6BC3634030403143
:100C3C00403ADBD230320BD30B6803604B68436015
:100C4C008B688360CB68C36010301031103AF3D2DC
:100C5C000C3205D351F8043B40F8043B043AF9D26A
:100C6C00043208D0D2071CBF11F8013B00F8013B3D
:100C7C0001D30B8803806046704700BF082A13D34A
:100C8C008B07B1D010F00303AED0C3F10403D21A1A
:100C9C00DB071CBF11F8013B00F8013BA4D331F872
:100CAC00023B20F8023B9FE7043AD9D3013A11F8F2
:100CBC00013B00F8013BF9D20B7803704B78437081
:100CCC008B7883706046704788420DD98B188342AD
:100CDC000AD900EB020CBAB1624613F801CD994265
:100CEC0002F801CDF9D170470F2A0ED8034602F154
:100CFC00FF3C4AB10CF1010C013B8C4411F8012B67
:100D0C00614503F8012FF9D1704740EA01039B07B5
:100D1C004FD1A2F1100370B501F1200C23F00F0597
:100D2C0001F1100E00F11004AC441B095EF8105CCC
:100D3C000EF1100E44F8105C5EF81C5C103444F894
:100D4C001C5C5EF8185C44F8185C5EF8145CE645B4
:100D5C0044F8145CEAD1013312F00C0F01EB0311CF
:100D6C0002F00F0400EB031327D08E46043C24F052
:100D7C0003064FEA940C1E441C1F5EF8045B44F8F7
:100D8C00045FB442F9D10CF1010402F0030203EB4D
:100D9C00840301EB840102F1FF3C4AB10CF1010C1C
:100DAC00013B8C4411F8012B614503F8012FF9D15B
:100DBC0070BD034602F1FF3C9CE72246EBE700BF07
:100DCC00002952D038B551F8043C0C1F002BB8BF89
:100DDC00E418054600F0F0F82B4A1368002B45D0B8
:100DEC00A3420CD921686018834228D0636028463E
:100DFC001460BDE8384000F0E1B8A3420FD81A46A1
:100E0C005B68002BF9D11168501884421DD034D383
:100E1C00636054602846BDE8384000F0CFB81168D4
:100E2C005018A04215D028D8216860188342EFD101
:100E3C0018685B680144C4E900135460EAE7186859
:100E4C005B680144C4E90013D1E7236819441160BD
:100E5C00E0E720680144501883421160DAD1D3E9ED
:100E6C0000030144C2E90013D4E7704728466360CD
:100E7C001460BDE8384000F0A1B80C2328462B6064
:100E8C00BDE8384000F09AB88C000020F8B5CD1CB5
:100E9C0025F0030508350C2D38BF0C25002D064612
:100EAC0023DBA94221D8264F00F086F83A6822B3FA
:100EBC00144603E063682246FBB11C4623685B1BA7
:100ECC00F8D40B2B15D8636894420CBF3B6053606D
:100EDC00304600F073F804F10B00231D20F00700DE
:100EEC00C21A01D01B1AA350F8BD0C23002033608A
:100EFC00F8BD23601C442560EAE77968D1B1294626
:100F0C00304600F047F8431C01460CD0C41C24F0BA
:100F1C000304A04205D03046611A00F03BF80130C2
:100F2C0001D02560D4E70C233046336000F046F83E
:100F3C000020F8BD304600F02DF87860DFE700BFE8
:100F4C008C000020F8B51446F9B1CAB106460D461E
:100F5C0000F036F8A04202D32F463846F8BD2146A1
:100F6C003046FFF793FF07460028F6D02246294665
:100F7C00FFF734FE30462946FFF722FF3846F8BD0E
:100F8C002746FFF71DFF3846F8BD1146BDE8F8406F
:100F9C00FFF77CBF002238B5064D044608462A6090
:100FAC0002F06EF8431C00D038BD2B68002BFBD030
:100FBC00236038BD94000020704700BF704700BF0D
:100FCC0051F8040C0028A0F10400BCBF0B58C01849
:100FDC00704700BF82B00A4B9A6942F020029A61B6
:100FEC009A6902F020020092009A9A6942F0040277
:100FFC009A619B6903F004030193019B02B0704753
:10100C000010024000B583B00A4B5A6942F001024D
:10101C005A615B6903F001030193019B00221146A5
:10102C000B2001F0C9FB0B2001F0FEFB03B05DF8B7
:10103C0004FB00BF001002400268044B9A4200D02F
:10104C007047034B01221A70FAE700BF00240140DD
:10105C00640200200268044B9A4200D07047034B94
:10106C0001221A70FAE700BF00240140650200203B
:10107C0072B6FEE700B585B000230193029303938B
:10108C000F48104A02608360037303754FF4C0224B
:10109C00C26143600123036100F0D6FB60B90023F9
:1010AC00019301230293039301A9054800F022FA4E
:1010BC0020B905B05DF804FBFFF7DAFFFFF7D8FFA6
:1010CC00600100200024014000B58DB0002308937E
:1010DC0009930A930B93019302930393049305933F
:1010EC00069307931B484FF08042026040F2CF22D8
:1010FC004260836040F2E732C26003618023836107
:10110C0001F0A8FCE8B94FF48053089308A91148E2
:10111C0001F065FDB8B90F4801F0C8FCA8B930233F
:10112C0001934FF4FA730293002303930593042263
:10113C000DEB0201074801F017FD40B90DB05DF849
:10114C0004FBFFF795FFFFF793FFFFF791FFFFF706
:10115C008FFF00BFD401002008B50A480A4B03607A
:10116C004FF4E133436000238360C36003610C22BE
:10117C0042618361C36101F0ECFE00B908BDFFF769
:10118C0077FF00BF1C0200200038014000B595B06D
:10119C00282200210DEB0200FFF720F80023059315
:1011AC000693079308930993019302930393049373
:1011BC0001220A924FF480330B930E920222119269
:1011CC0012934FF4E01313930AA800F0A1FCC8B9D2
:1011DC000F23059302210691002307934FF480629D
:1011EC000892099305A800F0C5FE68B90223019383
:1011FC004FF40043039301A800F098FF30B915B0E9
:10120C005DF804FBFFF734FFFFF732FFFFF730FF09
:10121C0038B500F043FCFFF7B9FFFFF7DBFEFFF733
:10122C00F1FEFFF727FFFFF74FFFFFF795FF214C6C
:10123C00204600F08DFB64221F49204600F040FA46
:10124C0004211E4801F05AFD14E01D4D1A4B33F8D1
:10125C0014301C4A20212846FFF750F8322382B262
:10126C002946194801F0A5FE0134312CEDDD174B50
:10127C001B783BB9164B1B78002BF8D00024144B71
:10128C001C70F2E7114B00221A7032240FE00C4D47
:10129C00094B33F814300B4A20212846FFF72EF85F
:1012AC00322382B22946084801F083FE0134632CB4
:1012BC00EDDDDFE76001002098000020D401002064
:1012CC0068020020383100081C0200206502002052
:1012DC0064020020FEE7FEE7FEE7FEE7FEE770474C
:1012EC007047704708B500F0EBFB08BD08B5024825
:1012FC0001F0AEF908BD00BF9001002082B00E4B8A
:10130C009A6942F001029A619A6902F00102009214
:10131C00009ADA6942F08052DA61DB6903F080539B
:10132C000193019B054A536823F0E06343F000737B
:10133C00536002B0704700BF001002400000014033
:10134C0010B586B0002302930393049305930268AF
:10135C001E4B9A4201D006B010BD044603F56C43F7
:10136C009A6942F400729A619A6902F400720092CE
:10137C00009A9A6942F004029A619B6903F0040393
:10138C000193019B012302930323039302A91048A9
:10139C0000F0C4FF0F48104B0360002343608360D0
:1013AC008022C2604FF4807202614FF4806242610D
:1013BC0020228261C36101F0D9F818B9054B236270
:1013CC005C62C8E7FFF754FEF8E700BF0024014059
:1013DC000008014090010020080002400368B3F1AE
:1013EC00804F00D0704782B003F50433DA6942F0C5
:1013FC000102DA61DB6903F001030193019B02B086
:10140C007047000010B586B0002302930393049339
:10141C0005930268174B9A4201D006B010BD03F534
:10142C0058439A6942F480429A619A6902F4804264
:10143C000092009A9A6942F004029A619B6903F047
:10144C0004030193019B4FF4007302930223039353
:10145C0003230593084C02A9204600F05FFF4FF4CC
:10146C008063029300230393049302A9204600F0A7
:10147C0055FFD2E7003801400008014008B5436A27
:10148C009A6A12F0500F1ED19A6A42F400729A6254
:10149C001A68926802F46022B2F5602F03D01846E5
:1014AC00FFF7D8FD08BD1A7B002AF8D19A6A22F4FE
:1014BC0080729A629A6A12F4805FF0D19A6A42F052
:1014CC0001029A62EBE71B6A1B6B9847EAE708B5C7
:1014DC00406AFFF7B1FD08BD704708B5406A836AE2
:1014EC0043F040038362C36A43F00403C362FFF713
:1014FC00F3FF08BD30B482B00022019290F8242092
:10150C00012A00F091800346012280F824204A68C9
:10151C00062A2DD80468606B02EB8202053A4FF064
:10152C001F0C0CFA02FC20EA0C000D6805FA02F202
:10153C00024362630A68092A3AD91C68E06802EB24
:10154C0042021E3A4FF0070C0CFA02FC20EA0C0087
:10155C008D6805FA02F20243E2600A68103A012A29
:10156C0036D90020002283F8242002B030BC70470A
:10157C000C2A0ED80568286B02EB8202233A1F2432
:10158C00944020EA04000C6804FA02F202432A6335
:10159C00D0E70568E86A02EB8202413A1F249440C6
:1015AC0020EA04000C6804FA02F20243EA62C1E782
:1015BC001C68206902EB42024FF0070C0CFA02FC8B
:1015CC0020EA0C008D6805FA02F202432261C4E79E
:1015DC001A681648824205D09A6A42F020029A6232
:1015EC000120BFE7906810F4000F1BD1906840F405
:1015FC00000090600A68102A01D00020B2E70C4A63
:10160C0012680C49A1FB0212920C02EB82025200EE
:10161C00019202E0019A013A0192019A002AF9D151
:10162C0000209FE700209DE702209EE70024014058
:10163C006C00002083DE1B4330B583B00023019384
:10164C0003689A6812F0010F33D104469A6842F08D
:10165C0001029A60184B1B68184AA2FB03239B0CCF
:10166C00019302E0019B013B0193019B002BF9D1FB
:10167C0000F032FA054623689B6813F0010F16D16F
:10168C0000F02AFA431B022BF5D923689B6813F050
:10169C00010FF0D1A36A43F01003A362E36A43F095
:1016AC000103E362002384F82430012002E00020CF
:1016BC0000E0002003B030BD6C00002083DE1B4333
:1016CC00F8B504460D46164601684448814259D087
:1016DC00434B994256D094F82430012B7CD00123F3
:1016EC0084F824302046FFF7A7FF074600286ED168
:1016FC00A16A21F4706121F0010141F48071A162B1
:10170C002268374B9A4244D0A36A23F48013A36215
:10171C00536813F4806F05D0A36A23F4405343F449
:10172C008053A362A36A13F4805F48D0E36A23F06A
:10173C000603E362002384F82430236A294A9A6260
:10174C00236A294ADA62236A284A1A6323686FF0EB
:10175C0002021A602268936843F4807393602168D4
:10176C0033462A464C31206A00F036FF23689A68CB
:10177C0002F46022B2F5602F24D09A6842F48012F1
:10178C009A6027E0154B5B6813F4702FA3D00127E8
:10179C0020E0A3F580635B6813F4702FB4D0A36AC8
:1017AC0043F48013A3620D4B5B6813F4806FB9D0C4
:1017BC00A36A23F4405343F48053A362B2E700239B
:1017CC00E362B7E79A6842F4A0029A6002E0002351
:1017DC0084F824303846F8BD0227FBE7002401408A
:1017EC000028014089140008DB140008E7140008E5
:1017FC0038B503689A6812F0010F01D1002038BD8A
:10180C0004469A6822F001029A6000F065F90546D8
:10181C0023689B6813F0010F13D000F05DF9431B94
:10182C00022BF5D923689B6813F0010FF0D0A36A43
:10183C0043F01003A362E36A43F00103E362012067
:10184C00DDE70020DBE7000000287BD070B5044604
:10185C00836A002B4DD02046FFF7CAFFA36A13F012
:10186C00100369D1002867D1A26A22F4885222F0B1
:10187C00020242F00202A2626268E1690A43217B21
:10188C0042EA4102A568B5F5807F02D0012D36D021
:10189C001D46267D012E35D02668716821F46941DC
:1018AC00294371602568AE68274931401143A9600E
:1018BC00A168B1F5807F01D0012902D12369013BD8
:1018CC001B052568E96A21F470010B43EB62236860
:1018DC0099681E4B0B409A4225D0A36A23F0120341
:1018EC0043F01003A362E36A43F00103E3620120B7
:1018FC0027E0C36280F82430FFF722FDABE74FF4FA
:10190C008075C6E731B9A169013945EA413141F425
:10191C000065C1E7A16A41F02001A162E16A41F0D2
:10192C000101E162B8E70023E362A36A23F0030339
:10193C0043F00103A36204E0A36A43F01003A36223
:10194C00012070BD01207047FDF7E1FFFE0E1FFF67
:10195C0070B582B00023019390F82430012B72D023
:10196C000446012380F82430FFF742FF2046FFF79E
:10197C0063FE054628B1002384F82430284602B0C3
:10198C0070BDA36A23F4885323F0020343F00203CF
:10199C00A3622E4B1E68022000F054FCB6FBF0F63E
:1019AC007600019602E0019B013B0193019B002B09
:1019BC00F9D12268936843F00803936000F08CF827
:1019CC00064623689A6812F0080F14D000F084F8C9
:1019DC00801B0A28F5D923689B6813F0080FF0D0F8
:1019EC00A36A23F0120343F01003A362002384F8CC
:1019FC0024300125C2E79A6842F004029A6000F094
:101A0C006BF8064623689B6813F0040F14D000F0A3
:101A1C0063F8801B0A28F5D923689B6813F0040F20
:101A2C00F0D0A36A23F0120343F01003A362002347
:101A3C0084F824300125A1E7A36A23F0030343F0C3
:101A4C000103A36297E7022598E700BF6C00002012
:101A5C0010B504460E4B18784FF47A73B3FBF0F3C1
:101A6C000C4A1068B0FBF3F000F0ECFE68B90F2CD8
:101A7C0001D901200AE0002221464FF0FF3000F08E
:101A8C009BFE054B1C60002000E0012010BD00BF38
:101A9C00640000206C0000206800002008B5074A94
:101AAC00136843F010031360032000F073FE0F2043
:101ABC00FFF7CEFFFFF722FC002008BD00200240FC
:101ACC00034A1168034B1B780B441360704700BF2B
:101ADC008802002064000020014B1868704700BF8A
:101AEC008802002082B0084B1B68084AA2FB032323
:101AFC005B0A00FB03F3019300BF019B5A1E01928A
:101B0C00002BF9D102B070476C000020D34D62104D
:101B1C00002800F0F18170B582B00446036813F020
:101B2C00010F2CD0994B5B6803F00C03042B1DD0D8
:101B3C00964B5B6803F00C03082B12D06368B3F56B
:101B4C00803F41D0002B55D103F1804303F5043382
:101B5C001A6822F480321A601A6822F480221A6001
:101B6C0037E08A4B5B6813F4803FE7D0874B1B68E8
:101B7C0013F4003F03D06368002B00F0BF8123688F
:101B8C0013F0020F75D0814B5B6813F00C0F5FD014
:101B9C007E4B5B6803F00C03082B54D02369002B9D
:101BAC0000F08A807A4B01221A60FFF795FF0546F8
:101BBC00764B1B6813F0020F75D1FFF78DFF401B9E
:101BCC000228F5D903209EE1704A136843F4803350
:101BDC001360636843B3FFF77FFF05466B4B1B68CD
:101BEC0013F4003FCBD1FFF777FF401B6428F5D9E6
:101BFC00032088E1B3F5A02F09D0644B1A6822F4B6
:101C0C0080321A601A6822F480221A60E1E703F12C
:101C1C008043A3F53C331A6842F480221A601A6898
:101C2C0042F480321A60D4E7FFF756FF0546574B53
:101C3C001B6813F4003FA2D0FFF74EFF401B642833
:101C4C00F5D903205FE1514B5B6813F4803FA5D1BC
:101C5C004E4B1B6813F0020F03D02369012B40F08D
:101C6C004F814A4A136823F0F803616943EAC103C0
:101C7C001360236813F0080F33D0A369002B5CD0DA
:101C8C00434B0122C3F88024FFF726FF05463F4B48
:101C9C005B6A13F0020F21D1FFF71EFF401B0228D5
:101CAC00F5D903202FE1394A136823F0F803616951
:101CBC0043EAC1031360DCE7354B00221A60FFF7DF
:101CCC000BFF0546314B1B6813F0020FD1D0FFF709
:101CDC0003FF401B0228F5D9032014E10120FFF774
:101CEC0001FF236813F0040F00F09680274BDB698B
:101CFC0013F0805F34D1254BDA6942F08052DA61FF
:101D0C00DB6903F080530193019B0125214B1B6878
:101D1C0013F4807F26D0E368012B3DD0002B53D1E8
:101D2C0003F1804303F504331A6A22F001021A62AC
:101D3C001A6A22F004021A6233E0154B0022C3F82F
:101D4C008024FFF7C9FE0546104B5B6A13F0020FA7
:101D5C00C7D0FFF7C1FE401B0228F5D90320D2E003
:101D6C000025D3E70B4A136843F480731360FFF725
:101D7C00B3FE0646074B1B6813F4807FCBD1FFF7ED
:101D8C00ABFE801B6428F5D90320BCE00010024098
:101D9C0000004242007000405F4A136A43F00103A6
:101DAC001362E36833B3FFF797FE06465A4B1B6A80
:101DBC0013F0020F2FD1FFF78FFE801B41F28833F7
:101DCC009842F3D903209EE0052B09D0524B1A6A96
:101DDC0022F001021A621A6A22F004021A62E0E787
:101DEC004D4B1A6A42F004021A621A6A42F001025E
:101DFC001A62D6E7FFF770FE0646474B1B6A13F0D4
:101E0C00020F08D0FFF768FE801B41F2883398421E
:101E1C00F3D9032077E0E5B9E369002B72D03E4A91
:101E2C00526802F00C02082A56D0022B17D03B4BFA
:101E3C0000221A66FFF750FE0446374B1B6813F05E
:101E4C00007F47D0FFF748FE001B0228F5D903207E
:101E5C0059E0314AD36923F08053D361DCE72F4B2F
:101E6C0000221A66FFF738FE05462B4B1B6813F051
:101E7C00007F06D0FFF730FE401B0228F5D9032067
:101E8C0041E0236AB3F5803F1AD023494B6823F411
:101E9C007413226A606A024313434B601F4B012286
:101EAC001A66FFF719FE04461B4B1B6813F0007FE4
:101EBC000ED1FFF711FE001B0228F5D9032022E0FA
:101ECC00154A536823F40033A1680B435360DCE7D5
:101EDC00002018E0002016E0012B16D00E4B5B689A
:101EEC0003F48031226A914211D103F47013626AB7
:101EFC0093420ED1002006E001207047012002E041
:101F0C00012000E0002002B070BD0120FBE70120A1
:101F1C00F9E70120F7E700BF001002400000424241
:101F2C000F4B5B6803F00C02082A01D00D48704778
:101F3C00C3F383420C49885C13F4803F0BD0084BED
:101F4C005B68C3F34043094AD35C064A02FB00F0CA
:101F5C00B0FBF3F07047064B03FB00F0704700BF7B
:101F6C000010024000127A00403100085031000885
:101F7C0000093D00002800F0A08070B50D46044615
:101F8C00524B1B6803F007038B420BD24F4A13686A
:101F9C0023F007030B431360136803F007038B4212
:101FAC0040F08D80236813F0020F17D013F0040F4C
:101FBC0004D0474A536843F4E0635360236813F03A
:101FCC00080F04D0424A536843F460535360404AAC
:101FDC00536823F0F003A1680B435360236813F09C
:101FEC00010F31D06368012B20D0022B25D0384A49
:101FFC00126812F0020F64D035494A6822F00302CD
:10200C0013434B60FFF768FD0646314B5B6803F0EA
:10201C000C036268B3EB820F16D0FFF75DFD801BDB
:10202C0041F288339842F0D9032045E0284A1268DF
:10203C0012F4003FE0D101203EE0254A126812F074
:10204C00007FD9D1012037E0204B1B6803F0070338
:10205C00AB420AD91D4A136823F007032B431360C4
:10206C00136803F00703AB422DD1236813F0040F60
:10207C0006D0174A536823F4E063E1680B435360BE
:10208C00236813F0080F07D0114A536823F46053E8
:10209C00216943EAC1035360FFF742FF0C4B5B68B5
:1020AC00C3F303130B4AD35CD8400B4B18600B4B98
:1020BC001868FFF7CDFC002070BD0120704701208F
:1020CC00FAE70120F8E70120F6E700BF0020024004
:1020DC0000100240683100086C00002068000020ED
:1020EC00014B1868704700BF6C00002008B5FFF763
:1020FC00F7FF044B5B68C3F30223034AD35CD8405D
:10210C0008BD00BF001002407831000808B5FFF789
:10211C00E7FF044B5B68C3F3C223034AD35CD8408C
:10212C0008BD00BF001002407831000870B582B0C5
:10213C000446036813F0010F36D03F4BDB6913F0F4
:10214C00805F49D13C4BDA6942F08052DA61DB693D
:10215C0003F080530193019B0125384B1B6813F44A
:10216C00807F3BD0344B1B6A13F4407313D06268EE
:10217C0002F440729A420ED02F4A136A23F4407034
:10218C002F490126C1F840640026C1F84064106252
:10219C0013F0010F36D1284A136A23F44073616897
:1021AC000B431362002D3ED1236813F0020F06D0AF
:1021BC00214A536823F44043A1680B4353602368BE
:1021CC0013F0100F34D01C4A536823F48003E168D9
:1021DC000B43536000202CE00025BEE7174A136820
:1021EC0043F480731360FFF777FC0646134B1B68B0
:1021FC0013F4807FB6D1FFF76FFC801B6428F5D9F0
:10220C00032016E0FFF768FC06460B4B1B6A13F025
:10221C00020FC0D1FFF760FC801B41F2883398425B
:10222C00F3D9032005E0D36923F08053D361BBE7D6
:10223C00002002B070BD00BF0010024000700040D2
:10224C000000424208B502284ED0102803D00128C5
:10225C0028D0002008BD2B4B5A68186810F08070ED
:10226C00F8D0C2F383432849C85C12F4803F15D0E0
:10227C00244B5B68C3F34043244AD25C244BB3FB2E
:10228C00F2F303FB00F01F4B5B6813F4800FE1D1FA
:10229C004000204BA3FB00304008DBE71E4B03FB48
:1022AC0000F0F0E7174B1B6A40F202321A40B2F50D
:1022BC00817F24D003F44073B3F5007F04D0B3F5D1
:1022CC00407F09D00020C5E70E4A526A12F0020F77
:1022DC00F5D049F64040BDE70A4B186810F40030C1
:1022EC00B8D04FF22440B5E7FFF710FF054B5B6801
:1022FC00C3F3813301335B00B0FBF3F0AAE74FF477
:10230C000040A7E700100240543100086431000877
:10231C0000127A00ABAAAAAA00093D0070B582B0DF
:10232C000024A446A6E0804DAA4210D007D97F4DC8
:10233C00AA420CD005F58035AA4208D013E0A5F5C9
:10234C008015AA4203D005F57025AA4207D18A68E8
:10235C00002A58D0012A51D04361082403E0A5F586
:10236C008015AA42F3D0BEF1FF0F4ED80646BEF13F
:10237C00FF0F4CD84FEA8C0233680F25954023EAA7
:10238C00050304FA02F2134333604B6813F0805FC9
:10239C006ED0674B9A6942F001029A619B6903F017
:1023AC0001030193019B4FEA9C02951C614B53F86E
:1023BC0025600CF003039D000F23AB4026EA0306B7
:1023CC005D4B984229D003F58063984200F08E80D3
:1023DC0003F58063984200F08B8003F5806398428C
:1023EC0019D004231AE0CC68BDE7CC680434BAE7F2
:1023FC00CC680834B7E7CC680C34B4E70361082424
:10240C00B1E70024AFE70424ADE7061DAFE7ACF15C
:10241C0008029200B0E7032300E00023AB403343F3
:10242C000232444D45F822304B6813F4801F61D0C2
:10243C00424A936843EA0E0393604B6813F4001FFF
:10244C005ED03E4AD36843EA0E03D3604B6813F464
:10245C00003F5BD0394A536843EA0E0353604B6824
:10246C0013F4803F58D0354A136843EA0E031360C7
:10247C000CF1010C0A6832FA0CF353D0012303FA65
:10248C000CF302EA030E33EA0202F1D14A68122A73
:10249C003FF649AF122A3FF666AF01A555F822F078
:1024AC005B230008F3230008FD2300080F24000819
:1024BC007323000873230008732300087323000898
:1024CC007323000873230008732300087323000888
:1024DC007323000873230008732300087323000878
:1024EC0073230008F723000803240008012395E751
:1024FC00022393E7114A936823EA0E0393609CE747
:10250C000E4AD36823EA0E03D3609FE70B4A536845
:10251C0023EA0E035360A2E7084A136823EA0E036A
:10252C001360A5E702B070BD00002210000031104E
:10253C00001002400000014000080140000401406E
:10254C0030B40124056CAC40C56B6C6004686360EE
:10255C004368102B05D0036899600368DA6030BCBF
:10256C00704703689A600368D960F8E760B310B4E9
:10257C0002460168154B0B441548A0FB03031B09CD
:10258C009B001364134BD363022382F82130086839
:10259C0020F47F5020F03000536894682343D468B3
:1025AC002343146923435469234394692343D46913
:1025BC00234303430B6000209063012382F82130F6
:1025CC0082F8200010BC704701207047F8FFFDBF57
:1025DC00CDCCCCCC0000024038B5044690F820009D
:1025EC00012832D0012084F8200094F82100C0B2D8
:1025FC00012804D0002384F82030022038BD0220AA
:10260C0084F821000020A0632568286820F00100D0
:10261C0028602046FFF794FFE36A5BB122681368D9
:10262C0043F00E0313602268136843F00103136038
:10263C000020E3E72268136823F004031360226888
:10264C00136843F00A031360EDE70220D6E700009D
:10265C0038B5C36B1A6804682568016C04238B4079
:10266C00134235D015F0040F32D0236813F0200F2D
:10267C0003D1236823F0040323600368434A934285
:10268C0014D01432934218D01432934217D014320F
:10269C00934217D01432934217D01432934202D083
:1026AC004FF0806203E04FF4800200E00422384BCC
:1026BC005A60C36A03B1984738BD4022F7E74FF41C
:1026CC008062F4E74FF48042F1E74FF48022EEE7AA
:1026DC0002238B4013423CD015F0020F39D02368F3
:1026EC0013F0200F06D1236823F00A032360012383
:1026FC0080F821300368254A934214D01432934257
:10270C001CD0143293421BD0143293421BD014327F
:10271C0093421BD01432934202D04FF0007203E06C
:10272C004FF4001200E00222194B5A60002380F88B
:10273C002030836A002BBFD09847BDE72022F3E7F7
:10274C004FF40072F0E74FF40052EDE74FF4003213
:10275C00EAE7082303FA01F11142ADD015F0080F96
:10276C00AAD0236823F00E032360026CC16B0123F3
:10277C0003FA02F24A60836380F82130002380F868
:10278C002030036B002B97D0984795E70800024048
:10279C0000000240074AD36823F4E0631B041B0CBF
:1027AC00000200F4E060034343F0BF6343F40033E2
:1027BC00D360704700ED00E000B5194BDB68C3F344
:1027CC000223C3F1070CBCF1040F28BF4FF0040C1B
:1027DC0003F1040EBEF1060F18D9033B4FF0FF3E78
:1027EC000EFA0CFC21EA0C0199400EFA03F322EAD2
:1027FC000303194300280BDB0901C9B200F1604047
:10280C0000F5614080F800135DF804FB0023E5E758
:10281C0000F00F000901C9B2024B1954F4E700BFD4
:10282C0000ED00E014ED00E0002807DB00F01F02D3
:10283C00400901239340024A42F82030704700BF00
:10284C0000E100E00138B0F1807F0BD24FF0E023C3
:10285C005861054AF02182F8231000209861072264
:10286C001A6170470120704700ED00E070B4036AF4
:10287C00026A22F0010202624668826922F0730247
:10288C000C6844EA020523F002028B6813430D4CDA
:10289C00A04209D00B4CA0420DD0466085614A681D
:1028AC004263036270BC704723F00803CA68134389
:1028BC0023F00403EEE726F440764A6932438E692E
:1028CC001643EAE7002C014030B4036A026A22F492
:1028DC00807202624568C26922F073020C6822435E
:1028EC0023F400738C6843EA04230F4CA04209D0F4
:1028FC000D4CA0420ED04560C2614A68C2630362AF
:10290C0030BC704723F40063CC6843EA042323F4FF
:10291C008063EDE725F440554C6945EA04158C6954
:10292C0045EA0415E7E700BF002C014030B4036A08
:10293C00026A22F4805202624468C26922F4E642BE
:10294C000D6842EA052223F400538D6843EA0533EF
:10295C00074DA84206D04460C2614A680264036213
:10296C0030BC704724F480444D6944EA8514F2E786
:10297C00002C014010B4036A046A24F001040462C0
:10298C00846924F0F00C4CEA021223F00A030B4386
:10299C008261036210BC704710B4036A046A24F0AD
:1029AC0010040462846924F4704C4CEA023223F063
:1029BC00A00343EA01138261036210BC7047836871
:1029CC0023F070030B4343F0070383607047704799
:1029DC0003681F4A90420AD0B0F1804F07D0A2F58D
:1029EC009432904203D002F58062904203D123F0DE
:1029FC0070034A681343164A90420AD0B0F1804FD4
:102A0C0007D0A2F59432904203D002F58062904236
:102A1C0003D123F44073CA68134323F080034A693B
:102A2C00134303608B68C3620B688362084B984244
:102A3C000AD001234361036913F0010F03D003692A
:102A4C0023F00103036170470B690363F1E700BFD7
:102A5C00002C014040B310B5044690F83D30F3B162
:102A6C00022384F83D30214651F8040BFFF7B0FFE8
:102A7C00012384F8463084F83E3084F83F3084F8E3
:102A8C00403084F8413084F8423084F8433084F884
:102A9C00443084F8453084F83D30002010BD80F877
:102AAC003C30FEF79BFCDBE70120704740B310B5D0
:102ABC00044690F83D30F3B1022384F83D302146B2
:102ACC0051F8040BFFF784FF012384F8463084F897
:102ADC003E3084F83F3084F8403084F8413084F83C
:102AEC00423084F8433084F8443084F8453084F81C
:102AFC003D30002010BD80F83C30FFF768FFDBE76D
:102B0C000120704730B4036A026A22F0100202629C
:102B1C004468826922F4E6420D6842EA052223F0F9
:102B2C0020038D6843EA05130E4DA84209D00D4DC4
:102B3C00A8420ED0446082614A688263036230BC52
:102B4C00704723F08003CD6843EA051323F040035C
:102B5C00EDE724F440644D6944EA85048D6944EA48
:102B6C008504E7E7002C014090F83C30012B28D07D
:102B7C0010B50446012380F83C300C2A1CD8DFE841
:102B8C0002F0071B1B1B0C1B1B1B111B1B1B16001A
:102B9C000068FFF76BFE00200FE00068FFF7B2FF44
:102BAC0000200AE00068FFF78FFE002005E00068B7
:102BBC00FFF7BCFE002000E00120002384F83C302D
:102BCC0010BD0220704710B4846824F47F4C42EA94
:102BDC0003220A4342EA0C02826010BC704790F850
:102BEC003C30012B78D010B50446012380F83C30E2
:102BFC00022380F83D300268936823F47F4323F06E
:102C0C00770393600B68602B4CD029D8402B54D0A1
:102C1C000CD9502B22D1CA6849680068FFF7AAFE6C
:102C2C0050212068FFF7CBFE002005E0202B0DD0B3
:102C3C0009D9302B0AD00120012384F83D30002320
:102C4C0084F83C3010BD0BB1102B05D1194620680F
:102C5C00FFF7B5FE0020EFE70120EDE70120EBE7E1
:102C6C00B3F5805F34D0B3F5005F0CD1CB684A6804
:102C7C0089680068FFF7A7FF2268936843F48043D4
:102C8C0093600020D8E7702B24D1CB684A68896800
:102C9C000068FFF798FF2268936843F0770393600E
:102CAC000020C9E7CA6849680068FFF775FE602113
:102CBC002068FFF784FE0020BEE7CA6849680068F8
:102CCC00FFF758FE40212068FFF779FE0020B3E79C
:102CDC000020B1E70120AFE70220704701F01F018F
:102CEC00012303FA01FC036A23EA0C030362036A5F
:102CFC0002FA01F10B4303627047000010B5044661
:102D0C00084651BB94F83E30DBB2013B18BF01239F
:102D1C00002B5BD1002839D1022384F83E300122EC
:102D2C0001462068FFF7DAFF23682A4A93423DD018
:102D3C002368284A93423ED0B3F1804F3BD0A2F592
:102D4C009432934237D002F58062934233D01A68A2
:102D5C0042F001021A60002039E0042908D0082949
:102D6C000DD094F84130DBB2013B18BF0123CFE703
:102D7C0094F83F30DBB2013B18BF0123C8E794F84D
:102D8C004030DBB2013B18BF0123C1E7042805D05A
:102D9C00082807D0022384F84130C0E7022384F8C6
:102DAC003F30BCE7022384F84030B8E75A6C42F459
:102DBC0000425A64BCE79A6802F00702062A07D060
:102DCC001A6842F001021A60002000E0012010BDD8
:102DDC000020FCE7002C0140026802F10C0353E8D0
:102DEC00003F23F490730C3242E800310029F3D1F8
:102DFC00026802F1140353E8003F23F0010314327C
:102E0C0042E800310029F3D1036B012B05D02023BC
:102E1C0080F84230002303637047026802F10C0310
:102E2C0053E8003F23F010030C3242E80031002934
:102E3C00F3D1ECE710B504460268136923F4405350
:102E4C00C1680B43136183680269134342691A43D7
:102E5C000168CB6823F4B05323F00C031343CB600D
:102E6C000268536923F4407381690B435361026810
:102E7C00134B9A4220D0FFF739F9024602EB82023B
:102E8C0002EB820263689B00B2FBF3F20D48A0FBDD
:102E9C0002314909642303FB11231B013233A0FBCC
:102EAC0003235B0903F0F00202EB011203F00F03A2
:102EBC00216813448B6010BDFFF728F90246DDE74B
:102ECC00003801401F85EB512DE9F04383B00546D6
:102EDC000E4617469946DDF828802C68246836EA99
:102EEC0004030CBF4FF0010C4FF0000CBC4528D173
:102EFC00B8F1FF3FF1D0FEF7EFFDA0EB0900404524
:102F0C0023D8B8F1000F22D02B68DA6812F0040F26
:102F1C00E3D0802EE1D0402EDFD01A6812F0080FDB
:102F2C00DBD0002401941A6801925B680193019B29
:102F3C002846FFF751FF08236B6485F840400120B9
:102F4C0000E0002003B0BDE8F0830320FAE7032083
:102F5C00F8E760B310B5044690F8413013B324235E
:102F6C0084F841302268D36823F40053D3602046A0
:102F7C00FFF760FF2268136923F490431361226802
:102F8C00536923F02A0353612268D36843F4005336
:102F9C00D36000206064202384F8413084F84230F0
:102FAC00606310BD80F84030FEF72CFAD7E70120A3
:102FBC0070472DE9F04182B01E4690F84130DBB2EB
:102FCC00202B56D104460D469046002955D00AB9FF
:102FDC0001204FE000234364212380F84130FEF7A9
:102FEC007BFD0746A4F82480A4F82680A368B3F5DB
:102FFC00805F02D04FF0000814E023692BB34FF030
:10300C0000080FE0202384F84130032032E038F828
:10301C00023B2268C3F308035360E28C92B2013A7C
:10302C0092B2E284E38C9BB293B100963B460022B1
:10303C0080212046FFF748FF0028E3D1002DE6D081
:10304C0015F8012B23685A60E7E7A8460025E9E745
:10305C0000963B46002240212046FFF735FF18B969
:10306C00202384F8413005E0202384F841300320EC
:10307C0000E0022002B0BDE8F0810120FAE77047C1
:10308C0010B503460C4A0D490D48006840B10C4878
:10309C0000680344521A934206D8094A136010BDC3
:1030AC000748084C0460F2E7FDF76EF80C23036048
:1030BC004FF0FF30F3E700BF005000200004000089
:1030CC008C02002090020020FFF7D9FF0B480C491E
:1030DC000C4A002302E0D458C4500433C4188C4268
:1030EC00F9D3094A094C002301E013600432A242CF
:1030FC00FBD3FDF74FF8FEF78BF87047000000206C
:10310C0070000020C43100087000002090020020E4
:10311C00FEE70000F8B500BFF8BC08BC9E4670473F
:0C312C00F8B500BFF8BC08BC9E46704718
:1031380025750D0A000000000203040506070809AA
:103148000A0B0C0D0E0F10100102000002030405FB
:10315800060708090A0B0C0D0E0F101001020000DB
:10316800000000000000000001020304060708092F
:103178000000000001020304232D302B2000000072
:10318800686C4C006566674546470000303132334D
:10319800343536373839414243444546000000004B
:1031A80030313233343536373839616263646566B5
:0431B8000000000013
:0431BC007501000891
:0431C0004D010008B5
:1031C40004000020000000000000000000000000D7
:1031D40000000000000000000000000000000000EB
:1031E40000000000000000000000000000000000DB
:1031F40000000000000000000000000000000000CB
:1032040000000000000000000000000000000000BA
:1032140000000000000000000000000000000000AA
:1032240000000000010000001000000000127A00FD
:04000005080030D5EA
:00000001FF
