:020000040800F2
:10000000005000209D030008E5030008E5030008F8
:10001000E5030008E5030008E50300080000000010
:10002000000000000000000000000000E5030008E0
:10003000E503000800000000E5030008E5030008F0
:10004000E5030008E5030008E5030008E5030008F0
:10005000E5030008E5030008E5030008E5030008E0
:10006000E5030008E5030008E5030008E5030008D0
:10007000E5030008E5030008E5030008E5030008C0
:10008000E5030008E5030008E5030008E5030008B0
:10009000E5030008E5030008E5030008E5030008A0
:1000A000E5030008E5030008E5030008E503000890
:1000B000E5030008E5030008E5030008E503000880
:1000C000E5030008E5030008E5030008E503000870
:1000D000E5030008E5030008E5030008E503000860
:1000E000E5030008E5030008E50300080000000040
:1000F0000000000000000000000000000000000000
:0C01000000000000000000005FF808F1A3
:10010C000348044B834202D0034B03B1184770479A
:10011C000000002000000020000000000548064BF5
:10012C001B1AD90F01EBA301491002D0034B03B1E9
:10013C00184770470000002000000020000000005D
:10014C0010B5064C237843B9FFF7DAFF044B13B113
:10015C000448AFF300800123237010BD0000002081
:10016C00000000002007000808B5044B1BB104492F
:10017C000448AFF30080BDE80840CFE70000000062
:10018C00040000202007000870B50F4B0F4DAB4248
:10019C00A3EB050607D00024B61055F8043B013438
:1001AC009847A642F9D800F0B5FA094D094B5E1BE9
:1001BC00AB424FEAA60606D0002455F8043B0134A6
:1001CC009847A642F9D870BD4C0B00084C0B0008A0
:1001DC004C0B0008500B000808B500F085F800F037
:1001EC00A3F8024800F0ADF8FEE700BF380700089E
:1001FC0010B586B001214FF4001000F07DFA0121FA
:10020C00082000F06BFAC023ADF814301C238DF8D5
:10021C00173003238DF8163005A9104800F0DDF8CF
:10022C000023ADF808304BF6FF72ADF80A20ADF89C
:10023C000C304FF48063ADF80E304FF48043ADF8C2
:10024C001030074B0193074C01A9204600F01EF912
:10025C000121204600F086F906B010BD000C0140CB
:10026C00A08601000054004038B505460C464FF4FA
:10027C000031194800F0B7F90028F8D101211648CF
:10028C0000F07EF91549144800F0A0F90028F9D0C7
:10029C0000227821104800F091F911490E4800F025
:1002AC0095F90028F9D029460B4800F085F90D493D
:1002BC00094800F08BF90028F9D02146064800F0D7
:1002CC007BF90849044800F081F90028F9D0012194
:1002DC00014800F063F938BD0054004001000300F0
:1002EC00820007008400070008B5FFF781FFAE21EC
:1002FC000020FFF7B9FF20210020FFF7B5FF0021F8
:10030C000846FFF7B1FF8D210020FFF7ADFF142148
:10031C000020FFF7A9FFAF210020FFF7A5FFA521C3
:10032C000020FFF7A1FF08BD10B5002405E0002157
:10033C004020FFF799FF0134A4B2B4F5806FF6D3D7
:10034C0010BD38B5054621210020FFF78DFF002197
:10035C000846FFF789FF7F210020FFF785FF222148
:10036C000020FFF781FF00210846FFF77DFF0721E2
:10037C000020FFF779FF002405E0295D4020FFF7FE
:10038C0073FF0134A4B2B4F5806FF6D338BD704757
:10039C00002103E00B4B5B58435004310A480B4BD4
:1003AC0042189A42F6D30A4A02E0002342F8043B70
:1003BC00084B9A42F9D3FFF7EAFFFFF7E5FEFFF788
:1003CC000BFF7047540B00080000002000000020B9
:1003DC00000000201C000020FEE730B5CB7803F0B5
:1003EC000F02964613F0100F03D091F802E04EEA7C
:1003FC00020E0B78FBB10568002301E0426101336A
:10040C00072B17D801229A40B1F800C032EA0C0C25
:10041C00F5D19C004FF00F0C0CFA04FC25EA0C05EE
:10042C000EFA04F42543CC78282CE7D0482CE6D1DE
:10043C000261E4E705600B88FF2B25D94568002392
:10044C0003E0CC78482C1CD00133072B1BD803F1CC
:10045C00080C012202FA0CF2B1F800C032EA0C0CC2
:10046C00F2D19C004FF00F0C0CFA04FC25EA0C0C9A
:10047C000EFA04F444EA0C05CC78282CE1D1426144
:10048C00DFE70261E0E7456030BD000070B586B083
:10049C0004460D468688B6B226F03F06B6B201A8D1
:1004AC0000F0BEF803992C4BA3FB01239A0C46EAEF
:1004BC009346A68023889BB223F001039BB2238032
:1004CC002B68264EB34220D810465B00B1FBF3F3E9
:1004DC009BB2032B00D8042301302084A3832388F0
:1004EC009BB243F00103238023889BB223F48163E6
:1004FC0023F00203AA8869890A4313432380AB893A
:10050C002A891343238106B070BDEE884BF6FF7029
:10051C0086421BD003EB830303EB8303B1FBF3F1A4
:10052C0089B241F48043C3F30B0109B943F00103D1
:10053C0043F400434FF4967101FB02F2084981FB2E
:10054C0002129211013292B22284C7E703EB4303E9
:10055C00B1FBF3F39BB2E6E783DE1B43A0860100FD
:10056C00D34D621029B103889BB243F00103038081
:10057C00704703889BB223F001039BB20380704742
:10058C0029B103889BB243F48073038070470388BE
:10059C009BB223F480739BB20380704729B103880C
:1005AC009BB243F400730380704703889BB223F41F
:1005BC0000739BB203807047018270471AB141F0FF
:1005CC0001010182704701F0FE01FAE7838A9BB2B8
:1005DC00028B43EA024323F07F43994301D000206E
:1005EC0070470120704782B0002301930093009064
:1005FC000B0F019321F07F41019B4BB1009B1433F6
:10060C000093009B1B680B4207D0012002B070477F
:10061C00090C009B18330093F3E70020F6E7000069
:10062C0010B4294B5B6803F00C03042B29D0082B66
:10063C002AD0002B45D1254B036023494B68C3F3CB
:10064C000313234CE25CD2B20368D34043604A6884
:10065C00C2F30222A25CD2B223FA02F282604A688E
:10066C00C2F3C222A25CD2B2D340C3604A68C2F3C6
:10067C00813218498A5CD2B2B3FBF2F3036110BC2D
:10068C007047124B0360D8E70F4A53685268C3F3A4
:10069C008343023312F4803F04D10F4A02FB03F36D
:1006AC000360CAE7084A526812F4003F04D00A4AB1
:1006BC0002FB03F30360C0E7044A02FB03F303608D
:1006CC00BBE7024B0360B8E70010024000127A004F
:1006DC003C0B0008380B000800093D0021B1054A0D
:1006EC009369034393617047024A936923EA0003B9
:1006FC00936170470010024021B1054AD36903434E
:10070C00D3617047024AD36923EA0003D36170476F
:10071C0000100240F8B500BFF8BC08BC9E467047FC
:0C072C00F8B500BFF8BC08BC9E46704742
:10073800AAAAAAAAAAAAAAAAAAAAAAAAAAAAAAAA11
:10074800AAAAAAAAAAAAAAAAAAAAAAAAAAAAAAAA01
:10075800AAAAAAAAAAAAAAAAAAAAAAAAAAAAAAAAF1
:10076800AAAAAAAAAAAAAAAAAAAAAAAAAAAAAAAAE1
:100B38000204060800000000010203040102030485
:040B4800060708098B
:040B4C007501000827
:040B50004D0100084B
:040000050800039D4F
:00000001FF
