:020000040800F2
:1000000000500020311500082507000827070008C8
:10001000290700082B0700082D0700080000000032
:100020000000000000000000000000002F07000892
:1000300031070008000000003307000835070008FA
:100040007915000879150008791500087915000858
:100050007915000879150008791500087915000848
:100060007915000879150008791500087915000838
:100070007915000879150008791500087915000828
:100080007915000879150008791500087915000818
:100090007915000879150008791500087915000808
:1000A00079150008791500087915000879150008F8
:1000B00079150008791500087915000879150008E8
:1000C00079150008791500087915000879150008D8
:1000D00079150008791500087915000879150008C8
:1000E000791500087915000879150008000000004E
:1000F0000000000000000000000000000000000000
:0C01000000000000000000005FF808F1A3
:10010C000348044B834202D0034B03B1184770479A
:10011C000C0000200C0000200000000005480649DF
:10012C000B1AD90F01EBA301491002D0034B03B1F9
:10013C00184770470C0000200C0000200000000045
:10014C0010B5064C237843B9FFF7DAFF044B13B113
:10015C000448AFF300800123237010BD0C00002075
:10016C00000000007C15000808B5044B1BB10449C5
:10017C000448AFF30080BDE80840CFE70000000062
:10018C00100000207C15000870B50D4E0D4D761B2F
:10019C00B61006D0002455F8043B01349847A6420B
:1001AC00F9D1094E094D01F0E3F9761BB61006D0D2
:1001BC00002455F8043B01349847A642F9D170BD90
:1001CC0088170008881700088C1700088817000883
:1001DC00830730B548D0541E002A3FD00346CAB21C
:1001EC0001E0013C3AD303F8012B9D07F9D1032C14
:1001FC002DD9CDB245EA05250F2C45EA054536D952
:10020C00A4F1100222F00F0C03F1200EE6444FEA89
:10021C00121C03F1100242E9045542E90255103256
:10022C007245F8D10CF1010214F00C0F03EB021221
:10023C0004F00F0C13D0ACF1040323F003030433CC
:10024C00134442F8045B9342FBD10CF003042CB131
:10025C00CAB21C4403F8012B9C42FBD130BD64464E
:10026C001346002CF4D1F9E703461446BFE71A46AF
:10027C00A446E0E730B587B00024029403940494BC
:10028C000594134B9A6942F020029A619A6902F024
:10029C0020020092009A9A6942F004029A619B69CA
:1002AC0003F004030193019B0A4D22461C212846AE
:1002BC0001F0D2F81C23029301230393049402232C
:1002CC00059302A9284600F0B5FF07B030BD00BF6A
:1002DC00001002400008014010B582B08DF80700F4
:1002EC000C4C00220821204601F0B6F80022102107
:1002FC00204601F0B1F84FF0FF3301220DF1070158
:10030C00054800F058FB01221021204601F0A4F80A
:10031C0002B010BD000801402800002010B582B0CA
:10032C008DF807000C4C01220821204601F094F8AE
:10033C0000221021204601F08FF84FF0FF330122EC
:10034C000DF10701054800F036FB01221021204673
:10035C0001F082F802B010BD000801402800002016
:10036C00F8B507460D4616461C462A20FFF7B4FF83
:10037C00380AFFF7D3FFF8B2FFF7D0FF300AFFF7C8
:10038C00CDFFF0B2FFF7CAFF2B20FFF7A5FF280A1D
:10039C00FFF7C4FFE8B2FFF7C1FF200AFFF7BEFF6B
:1003AC00E0B2FFF7BBFF2C20FFF796FFF8BD000073
:1003BC0010B5184C00220421204601F04DF83220D3
:1003CC0000F026FC01220421204601F045F83220E1
:1003DC0000F01EFC0120FFF77FFF962000F018FCB8
:1003EC001120FFF779FFC82000F012FC3A20FFF72C
:1003FC0073FF0520FFF792FF3620FFF76DFFC0203B
:10040C00FFF78CFF2920FFF767FF642000F000FC4A
:10041C0010BD00BF000801407F2827D830B583B03D
:10042C0014469F2901D903B030BD0B460246FFF795
:10043C0097FF0F4D01220821284601F00DF80022EC
:10044C001021284601F008F8230A8DF804308DF8A5
:10045C0005404FF0FF33022201A9064800F0ABFA29
:10046C0001221021284600F0F7FFDCE7704700BF9F
:10047C00000801402800002030B583B004469F23BB
:10048C007F2200210846FFF76BFF124D0122082145
:10049C00284600F0E1FF00221021284600F0DCFF86
:1004AC00230A8DF804308DF80540002407E04FF046
:1004BC00FF33022201A9084800F07DFA0134B4F59B
:1004CC00A04FF4D301221021024800F0C5FF03B065
:1004DC0030BD00BF00080140280000202DE9F04F7E
:1004EC0087B09A46BDF8403003939DF84450203AAB
:1004FC00D3B205935A2B74D880468946002765E001
:10050C0009EB060108EB0700524689B280B2FFF7EF
:10051C0083FF019B5B080193013676B2072E53DCF7
:10052C00019B13F0010302931DD0012DE8D04FF075
:10053C00000B14E005FB078080B205FB069189B225
:10054C0021445844524689B280B2FFF765FF01340A
:10055C00E4B2AC42EED30BF1010B5FFA8BFBAB4573
:10056C00D7D20024F5E7039A5245D2D0012D06D0FC
:10057C00DDF808B0CDF810A0DDF80CA01DE009EBFB
:10058C00060108EB070089B280B2FFF745FFC0E710
:10059C0005FB078080B205FB069189B221445844C3
:1005AC00524689B280B2FFF737FF0134E4B2AC4255
:1005BC00EED30BF1010B5FFA8BFBAB4501D2029C26
:1005CC00F5E7DDF810A0A4E701377FB2042F08DCB3
:1005DC00059B03EB8302044B1344DB5D0193002664
:1005EC009CE707B0BDE8F08FA01500082DE9F0439B
:1005FC0083B00546884614461F46BDF828909DF8E2
:10060C002C600DE00196CDF800903B464146284603
:10061C00FFF764FF06EB460005EB400085B20134A2
:10062C002278002AEED103B0BDE8F08372B6FEE763
:10063C0008B50D480D4B03604FF4827343600023E3
:10064C008360C360036143614FF400728261C361D4
:10065C000362436283620A23C36200F051F900B95A
:10066C0008BDFFF7E3FF00BF280000200030014069
:10067C0000B591B02822002106A8FFF7A9FD0023A0
:10068C00019302930393049305930223069301238E
:10069C000A9310230B9306A800F0E4FA68B90F2311
:1006AC0001930021029103910491059101A800F09E
:1006BC000BFD20B911B05DF804FBFFF7B7FFFFF796
:1006CC00B5FF000000B583B000F07EFAFFF7D0FF55
:1006DC00FFF7D0FDFFF7ACFFFFF76AFE0020FFF736
:1006EC00CBFE03230193002400944FF6E073084AD9
:1006FC0028212320FFF77AFF0223019300944FF661
:10070C00FF73044A55211420FFF770FFFEE700BF6A
:10071C009415000898150008FEE7FEE7FEE7FEE7D3
:10072C00FEE770477047704708B500F05FFA08BDE8
:10073C0082B00E4B9A6942F001029A619A6902F0FA
:10074C0001020092009ADA6942F08052DA61DB69A8
:10075C0003F080530193019B054A536823F0E06337
:10076C0043F08063536002B0704700BF001002403A
:10077C000000014010B586B000230293039304934C
:10078C0005930268164B9A4201D006B010BD03F5D2
:10079C0060439A6942F480529A619A6902F48052D9
:1007AC000092009A9A6942F004029A619B6903F0E4
:1007BC0004030193019BA0230293022303930323BD
:1007CC000593084C02A9204600F034FD4023029307
:1007DC0000230393049302A9204600F02BFDD4E7D9
:1007EC0000300140000801402DE9F04782B0054679
:1007FC00884617461E4600F005FA0A9B1B1A03EBA7
:10080C00060900F0FFF982462B4B1B68C3F3CB3370
:10081C0009FB03F301932B689C6838EA04030CBFB3
:10082C004FF0010C4FF0000CBC4540D0B6F1FF3F2F
:10083C00F1D000F0E7F9A0EB0A0048450AD2B9F173
:10084C00000F07D0019A02B14A46019B013B01936C
:10085C009146E0E72A68536823F0E00353606B6825
:10086C00B3F5827F0BD0AB6AB3F5005F14D00123D4
:10087C0085F85130002385F85030032018E0AB6820
:10088C00B3F5004F02D0B3F5806FECD12A68136832
:10089C0023F040031360E6E72A68136823F400533F
:1008AC0013602A68136843F400531360DFE70020D9
:1008BC0002B0BDE8F08700BF0800002070B582B020
:1008CC0006460C46154600920B4601220221FFF704
:1008DC008BFF48B900952346002280213046FFF754
:1008EC0083FF38B902B070BD736D43F0200373659C
:1008FC000320F7E7736D43F0200373650320F1E7E2
:10090C00002856D010B50446436A33B94368B3F592
:10091C00827F05D00023C36102E0002303614361A1
:10092C000023A36294F85130002B3CD0022384F8AE
:10093C0051302268136823F040031360636803F49A
:10094C008273A26802F404421343E26802F4006268
:10095C001343226902F002021343626902F001029E
:10096C001343A26902F400721343E26902F03802E5
:10097C001343226A02F080021343A26A02F400526B
:10098C00216813430B60638B226803F004035360EC
:10099C002268D36923F40063D361002060650123CE
:1009AC0084F8513010BD84F850302046FFF7E2FE39
:1009BC00BCE7012070472DE9F04383B0044689461B
:1009CC0090461D4600F01EF994F85160F6B2012EC7
:1009DC0040F0CC800746B9F1000F00F0C880B8F1A8
:1009EC00000F00F0C48094F85030012B00F0C3804D
:1009FC00012384F85030032384F8513000236365BD
:100A0C00C4F83090A4F83480A4F83680A363A3878C
:100A1C00E38763642364A368B3F5004F1ED0236897
:100A2C001A6812F0400F03D11A6842F040021A60A3
:100A3C00E368B3F5006F1CD0636813B1B8F1010F14
:100A4C005FD1226B236812781A73236B01332363F3
:100A5C00E38E9BB2013B9BB2E38652E022681368A3
:100A6C0023F0400313602268136843F4804313603F
:100A7C00D5E7636813B1B8F1010F15D1226B236868
:100A8C001288DA60236B02332363E38E9BB2013B43
:100A9C009BB2E38608E000F0B5F8C01BA84202D375
:100AAC00B5F1FF3F15D1A5B1E38E9BB2002B42D01F
:100ABC0023689A6812F0020FEDD0226B1288DA606C
:100ACC00236B02332363E38E9BB2013B9BB2E38621
:100ADC00EAE7012384F85130002384F850300326D0
:100AEC0045E0226B12781A73236B01332363B4F83D
:100AFC0036C01FFA8CFC0CF1FF3C1FFA8CFCA4F8DE
:100B0C0036C0E38E9BB2B3B123689A6812F0020F21
:100B1C00E7D100F077F8C01BA84202D3B5F1FF3F34
:100B2C0001D1002DEDD1012384F85130002384F83C
:100B3C00503003261BE03A4629462046FFF7BEFEFE
:100B4C0008B120236365A36833B901932368DA687D
:100B5C0001929B680193019B012384F8513000237F
:100B6C0084F85030636D13B9002600E0022630463D
:100B7C0003B0BDE8F0830226F9E7000010B5044687
:100B8C000E4B18784FF47A73B3FBF0F30C4A1068E1
:100B9C00B0FBF3F000F0B0FC68B90F2C01D90120C8
:100BAC000AE0002221464FF0FF3000F06DFC054BAF
:100BBC001C60002000E0012010BD00BF00000020E0
:100BCC00080000200400002008B5074A136843F011
:100BDC0010031360032000F045FC0F20FFF7CEFF3D
:100BEC00FFF7A6FD002008BD00200240034A116853
:100BFC00034B1B780B441360704700BF8000002030
:100C0C0000000020014B1868704700BF80000020D6
:100C1C0038B50446FFF7F6FF0546B4F1FF3F02D0A6
:100C2C00044B1B781C44FFF7EDFF401BA042FAD38A
:100C3C0038BD00BF0000002082B0084B1B68084A7A
:100C4C00A2FB03235B0A00FB03F3019300BF019B90
:100C5C005A1E0192002BF9D102B0704708000020F7
:100C6C00D34D6210002800F0F18170B582B00446BB
:100C7C00036813F0010F2CD0994B5B6803F00C0345
:100C8C00042B1DD0964B5B6803F00C03082B12D081
:100C9C006368B3F5803F41D0002B55D103F18043FD
:100CAC0003F504331A6822F480321A601A6822F4AD
:100CBC0080221A6037E08A4B5B6813F4803FE7D0E0
:100CCC00874B1B6813F4003F03D06368002B00F0C4
:100CDC00BF81236813F0020F75D0814B5B6813F052
:100CEC000C0F5FD07E4B5B6803F00C03082B54D0C9
:100CFC002369002B00F08A807A4B01221A60FFF7DF
:100D0C0081FF0546764B1B6813F0020F75D1FFF778
:100D1C0079FF401B0228F5D903209EE1704A136825
:100D2C0043F480331360636843B3FFF76BFF0546EE
:100D3C006B4B1B6813F4003FCBD1FFF763FF401BD9
:100D4C006428F5D9032088E1B3F5A02F09D0644BB2
:100D5C001A6822F480321A601A6822F480221A600F
:100D6C00E1E703F18043A3F53C331A6842F4802297
:100D7C001A601A6842F480321A60D4E7FFF742FF17
:100D8C000546574B1B6813F4003FA2D0FFF73AFF00
:100D9C00401B6428F5D903205FE1514B5B6813F4C9
:100DAC00803FA5D14E4B1B6813F0020F03D0236973
:100DBC00012B40F04F814A4A136823F0F803616914
:100DCC0043EAC1031360236813F0080F33D0A369FF
:100DDC00002B5CD0434B0122C3F88024FFF712FF99
:100DEC0005463F4B5B6A13F0020F21D1FFF70AFF58
:100DFC00401B0228F5D903202FE1394A136823F050
:100E0C00F803616943EAC1031360DCE7354B002248
:100E1C001A60FFF7F7FE0546314B1B6813F0020F03
:100E2C00D1D0FFF7EFFE401B0228F5D9032014E1C7
:100E3C000120FFF701FF236813F0040F00F09680E8
:100E4C00274BDB6913F0805F34D1254BDA6942F014
:100E5C008052DA61DB6903F080530193019B012519
:100E6C00214B1B6813F4807F26D0E368012B3DD007
:100E7C00002B53D103F1804303F504331A6A22F09B
:100E8C0001021A621A6A22F004021A6233E0154B4C
:100E9C000022C3F88024FFF7B5FE0546104B5B6AB1
:100EAC0013F0020FC7D0FFF7ADFE401B0228F5D997
:100EBC000320D2E00025D3E70B4A136843F4807378
:100ECC001360FFF79FFE0646074B1B6813F4807FE9
:100EDC00CBD1FFF797FE801B6428F5D90320BCE02B
:100EEC000010024000004242007000405F4A136A4A
:100EFC0043F001031362E36833B3FFF783FE064646
:100F0C005A4B1B6A13F0020F2FD1FFF77BFE801B8D
:100F1C0041F288339842F3D903209EE0052B09D087
:100F2C00524B1A6A22F001021A621A6A22F0040267
:100F3C001A62E0E74D4B1A6A42F004021A621A6A0E
:100F4C0042F001021A62D6E7FFF75CFE0646474BF9
:100F5C001B6A13F0020F08D0FFF754FE801B41F2FE
:100F6C0088339842F3D9032077E0E5B9E369002B85
:100F7C0072D03E4A526802F00C02082A56D0022B5C
:100F8C0017D03B4B00221A66FFF73CFE0446374B4A
:100F9C001B6813F0007F47D0FFF734FE001B0228BC
:100FAC00F5D9032059E0314AD36923F08053D3613A
:100FBC00DCE72F4B00221A66FFF724FE05462B4B6D
:100FCC001B6813F0007F06D0FFF71CFE401B0228A5
:100FDC00F5D9032041E0236AB3F5803F1AD02349A9
:100FEC004B6823F47413226A606A024313434B6008
:100FFC001F4B01221A66FFF705FE04461B4B1B68AC
:10100C0013F0007F0ED1FFF7FDFD001B0228F5D970
:10101C00032022E0154A536823F40033A1680B43E4
:10102C005360DCE7002018E0002016E0012B16D0FE
:10103C000E4B5B6803F48031226A914211D103F4A8
:10104C007013626A93420ED1002006E001207047B3
:10105C00012002E0012000E0002002B070BD012060
:10106C00FBE70120F9E70120F7E700BF0010024081
:10107C00000042420F4B5B6803F00C02082A01D0BF
:10108C000D487047C3F383420C49885C13F4803FCE
:10109C000BD0084B5B68C3F34043094AD35C064A48
:1010AC0002FB00F0B0FBF3F07047064B03FB00F0C3
:1010BC00704700BF0010024000127A00641700084D
:1010CC007417000800093D00002800F0A08070B5DE
:1010DC000D460446524B1B6803F007038B420BD2A0
:1010EC004F4A136823F007030B431360136803F094
:1010FC0007038B4240F08D80236813F0020F17D04A
:10110C0013F0040F04D0474A536843F4E063536070
:10111C00236813F0080F04D0424A536843F4605319
:10112C005360404A536823F0F003A1680B435360AB
:10113C00236813F0010F31D06368012B20D0022BF0
:10114C0025D0384A126812F0020F64D035494A682B
:10115C0022F0030213434B60FFF754FD0646314B5C
:10116C005B6803F00C036268B3EB820F16D0FFF7D9
:10117C0049FD801B41F288339842F0D9032045E0A9
:10118C00284A126812F4003FE0D101203EE0254AC3
:10119C00126812F0007FD9D1012037E0204B1B6878
:1011AC0003F00703AB420AD91D4A136823F0070367
:1011BC002B431360136803F00703AB422DD1236854
:1011CC0013F0040F06D0174A536823F4E063E16868
:1011DC000B435360236813F0080F07D0114A536870
:1011EC0023F46053216943EAC1035360FFF742FFC4
:1011FC000C4B5B68C3F303130B4AD35CD8400B4B0B
:10120C0018600B4B1868FFF7B9FC002070BD01206B
:10121C0070470120FAE70120F8E70120F6E700BF4C
:10122C00002002400010024078170008080000203F
:10123C000400002070B582B00024A446A6E0804DC6
:10124C00AA4210D007D97F4DAA420CD005F58035A3
:10125C00AA4208D013E0A5F58015AA4203D005F5E3
:10126C007025AA4207D18A68002A58D0012A51D089
:10127C004361082403E0A5F58015AA42F3D0BEF122
:10128C00FF0F4ED80646BEF1FF0F4CD84FEA8C022A
:10129C0033680F25954023EA050304FA02F2134341
:1012AC0033604B6813F0805F6ED0674B9A6942F0E5
:1012BC0001029A619B6903F001030193019B4FEAC0
:1012CC009C02951C614B53F825600CF003039D00A8
:1012DC000F23AB4026EA03065D4B984229D003F559
:1012EC008063984200F08E8003F58063984200F092
:1012FC008B8003F58063984219D004231AE0CC68E4
:10130C00BDE7CC680434BAE7CC680834B7E7CC68DE
:10131C000C34B4E703610824B1E70024AFE70424DC
:10132C00ADE7061DAFE7ACF108029200B0E703236E
:10133C0000E00023AB4033430232444D45F82230E9
:10134C004B6813F4801F61D0424A936843EA0E0342
:10135C0093604B6813F4001F5ED03E4AD36843EA97
:10136C000E03D3604B6813F4003F5BD0394A5368CB
:10137C0043EA0E0353604B6813F4803F58D0354A50
:10138C00136843EA0E0313600CF1010C0A6832FA7D
:10139C000CF353D0012303FA0CF302EA030E33EAE5
:1013AC000202F1D14A68122A3FF649AF122A3FF6DF
:1013BC0066AF01A555F822F0731200080B13000854
:1013CC0015130008271300088B1200088B12000855
:1013DC008B1200088B1200088B1200088B1200086D
:1013EC008B1200088B1200088B1200088B1200085D
:1013FC008B1200088B1200088B1200080F130008C8
:10140C001B130008012395E7022393E7114A936805
:10141C0023EA0E0393609CE70E4AD36823EA0E037B
:10142C00D3609FE70B4A536823EA0E035360A2E78D
:10143C00084A136823EA0E031360A5E702B070BDD7
:10144C00000022100000311000100240000001408A
:10145C0000080140000401400AB101617047090411
:10146C0001617047074AD36823F4E0631B041B0C2B
:10147C00000200F4E060034343F0BF6343F4003325
:10148C00D360704700ED00E000B5194BDB68C3F387
:10149C000223C3F1070CBCF1040F28BF4FF0040C5E
:1014AC0003F1040EBEF1060F18D9033B4FF0FF3EBB
:1014BC000EFA0CFC21EA0C0199400EFA03F322EA15
:1014CC000303194300280BDB0901C9B200F160408A
:1014DC0000F5614080F800135DF804FB0023E5E79C
:1014EC0000F00F000901C9B2024B1954F4E700BF18
:1014FC0000ED00E014ED00E00138B0F1807F0BD27C
:10150C004FF0E0235861054AF02182F823100020A7
:10151C00986107221A6170470120704700ED00E0C6
:10152C0070470000FFF7FCFF0B480C490C4A0023E6
:10153C0002E0D458C4500433C4188C42F9D3094A7D
:10154C00094C002301E013600432A242FBD3FEF7E6
:10155C001BFEFFF7B7F87047000000200C000020BE
:10156C00901700080C00002084000020FEE700000B
:10157C00F8B500BFF8BC08BC9E467047F8B500BF74
:08158C00F8BC08BC9E46704744
:1015940048544E004E484F4D2032000000000000D9
:1015A4000000005F00000007000700147F147F1490
:1015B400242A7F2A122313086462364955225000D4
:1015C40005030000001C2241000041221C001408F5
:1015D4003E081408083E08080050300000080808B7
:1015E4000808006060000020100804023E514945CC
:1015F4003E00427F400042615149462141454B3102
:101604001814127F1027454545393C4A4949300191
:10161400710905033649494936064949291E0036E8
:1016240036000000563600000814224180141414B9
:1016340014148041221408020151090632497941E7
:101644003E7E1111117E7F494949363E4141412276
:101654007F4141221C7F494949417F090909013ED3
:101664004149497A7F0808087F00417F41002040B2
:10167400413F017F081422417F404040407F020CDB
:10168400027F7F0408107F3E4141413E7F090909E2
:10169400063E4151215E7F0919294646494949318F
:1016A40001017F01013F4040403F1F2040201F3F78
:1016B4004038403F631408146307087008076151F9
:1016C400494543007F4141000204081020040201FF
:1016D400020440404040400001020400205454549D
:1016E400787F484444383844444420384444487F4C
:1016F4003854545418087E0901020C5252523E7F49
:101704000804047800447D40002040443D007F10DC
:1017140028440000417F40007C041804787C0804BD
:10172400047838444444387C1414140808141418F5
:101734007C7C080404084854545420043F4440204A
:101744003C4040207C1C2040201C3C4030403C4419
:10175400281028440C5050503C4464544C4400001D
:1017640002030405060708090A0B0C0D0E0F1010DE
:101774000102000000000000000000000102030458
:041784000607080943
:0417880075010008DF
:04178C004D01000803
:0C179000010000001000000000127A00B0
:0400000508001531A9
:00000001FF
