:020000040800F2
:1000000000500020D12E0008D9160008DB16000889
:10001000DD160008DF160008E116000800000000E9
:10002000000000000000000000000000E3160008CF
:10003000E516000800000000E7160008E9160008B1
:10004000192F0008192F0008192F0008192F000870
:10005000192F0008192F0008192F0008192F000860
:10006000192F0008192F0008192F0008192F000850
:10007000192F0008192F0008192F0008192F000840
:10008000192F0008192F0008192F0008192F000830
:10009000192F0008192F0008192F0008192F000820
:1000A000192F0008192F0008192F0008192F000810
:1000B000192F0008192F0008192F0008192F000800
:1000C000192F0008192F0008192F0008192F0008F0
:1000D000192F0008F1160008192F0008192F000821
:1000E000192F0008192F0008192F00080000000020
:1000F0000000000000000000000000000000000000
:0C01000000000000000000005FF808F1A3
:10010C000348044B834202D0034B03B1184770479A
:10011C007000002070000020000000000548064917
:10012C000B1AD90F01EBA301491002D0034B03B1F9
:10013C00184770477000002070000020000000007D
:10014C0010B5064C237843B9FFF7DAFF044B13B113
:10015C000448AFF300800123237010BD7000002011
:10016C00000000001C2F000808B5044B1BB104490B
:10017C000448AFF30080BDE80840CFE70000000062
:10018C00740000201C2F00080A22002100F0BCBAC9
:10019C000A23002200F096BA014B1868704700BF82
:1001AC000000002070B50D4E0D4D761BB61006D01C
:1001BC00002455F8043B01349847A642F9D1094E66
:1001CC00094D02F0A5FE761BB61006D0002455F89A
:1001DC00043B01349847A642F9D170BD4431000864
:1001EC00443100084831000844310008830730B519
:1001FC0048D0541E002A3FD00346CAB201E0013C4D
:10020C003AD303F8012B9D07F9D1032C2DD9CDB28C
:10021C0045EA05250F2C45EA054536D9A4F110020F
:10022C0022F00F0C03F1200EE6444FEA121C03F1EE
:10023C00100242E9045542E9025510327245F8D1D8
:10024C000CF1010214F00C0F03EB021204F00F0C72
:10025C0013D0ACF1040323F003030433134442F82A
:10026C00045B9342FBD10CF003042CB1CAB21C44C6
:10027C0003F8012B9C42FBD130BD64461346002C85
:10028C00F4D1F9E703461446BFE71A46A446E0E763
:10029C000CB430B50C466FF000459DB00A4A20AB4B
:1002AC00059253F8042B02A9CDE901340795049566
:1002BC00069400F01FFB0022029B1A701DB0BDE8D3
:1002CC00304002B0704700BF0802FFFF0EB430B5DB
:1002DC0004466FF000459CB00B4A1FAB0B490592CE
:1002EC0053F8042B086802A9CDE90134079504954D
:1002FC00069400F0FFFA0022029B1A701CB0BDE8B5
:10030C00304003B0704700BF0802FFFF0000002020
:10031C0080EA010C1CF0030F37D110F0030C20F015
:10032C00030021F0030150F8042B08BF51F8043BE3
:10033C000ED08CF0030C6FF07F434FEACC0C23FAF9
:10034C000CFC51F8043B42EA0C0243EA0C0300BFDC
:10035C00A2F1013C9A4201BF2CEA020C1CF0803F36
:10036C0050F8042B51F8043BF2D04FEA02604FEAEC
:10037C001222012828BFB0EB036F08BF1B0AF4D070
:10038C0003F0FF03000EC01A704710F0030F0AD0E1
:10039C0010F8012B11F8013B012A28BF9A42F4D026
:1003AC00A2EB030070474DF8045D50F8042B01F0EC
:1003BC00030521F0030151F8043B022D26D04DD842
:1003CC0022F07F45B5EB132FA2F1013C2CEA020C75
:1003DC000DD11CF0803C08BF51F8043B0AD185EAD2
:1003EC000205B5EB036F0CD150F8042BE8E74FEA8C
:1003FC0013235BE03CF07F4C54D10B784FEA126531
:10040C0054E04FEA126503F0FF034FE04FEA024558
:10041C00A2F1013C4FEA15452CEA020CB5EB134F47
:10042C0018D11CF0803C08BF51F8043B07D185EA79
:10043C000205B5EB034F09D150F8042BE6E75FEA50
:10044C000C4C2FD10B884FEA12452FE04FEA034397
:10045C004FEA12454FEA134328E000BF02F0FF05B4
:10046C00B5EB136FA2F1013C2CEA020C0DD11CF080
:10047C00803C08BF51F8043B0AD185EA0205B5EB74
:10048C00032F0AD150F8042BE8E74FEA13630DE071
:10049C0012F0FF0F06D051F8043B4FEA122523F05F
:1004AC007F4303E04FF0000020BC704705F0FF02D3
:1004BC0003F0FF00012828BF904204BF2D0A1B0A3D
:1004CC00F4D0A2EB000020BC704700BF20F0030169
:1004DC0010F00300C0F1000051F8043B00F1040CD3
:1004EC004FEACC0C6FF000021CBF22FA0CF2134343
:1004FC004FF0010C4CEA0C2C4CEA0C4CA3EB0C020C
:10050C0022EA030212EACC1204BF51F8043B043075
:10051C00F4D0C2F1000102EA0102B2FA82F2C2F195
:10052C001F0200EBD2007047A2B330B540EA0104C1
:10053C00A40786460B462AD004780B78A3422FD109
:10054C00012A0CD0844654B11CF8014F11F8013F1C
:10055C009C4225D16FEA0C031344C318F3D100203D
:10056C0030BD1946DEF800407046A4F1013323EA91
:10057C00040C0B4653F8045B0EF1040EAC420BD189
:10058C00043AECD01CF0803FE9D170461946032A9E
:10059C00E7D8D1E71046704704780B789C42D1D04D
:1005AC00E01A30BD2DE9F04F81468E46444D704621
:1005BC001EF801CB15F80C4014F00804F7D1BCF16F
:1005CC002D0FE34653D06FF00048BCF12B0F04BF46
:1005DC009EF800B000F1020E1BB1102B4FD01F463D
:1005EC0004E0BBF1300F55D00A231F460025B8FBA1
:1005FC00F7F6284607FB168A07E0864215D329D062
:10060C00012507FB00C01EF801BBABF1300CBCF19F
:10061C00090F06D9ABF1410CBCF1190F08D8ABF19D
:10062C00370C63450DDD002DE7DA4FF0FF35EAE7B7
:10063C00ABF1610CBCF1190F03D8ABF1570C63454E
:10064C00F1DC002D0BDB04B140420AB195BB11600B
:10065C00BDE8F08FE245D3DA4FF0FF35D3E7222324
:10066C00C9F800301AB340460EF1FF31EFE79EF89F
:10067C0000B04FF00048012400F1020EACE7BBF1D2
:10068C00300FACD19EF8000000F0DF00582807D0E6
:10069C001F46ABE79EF8003003F0DF03582B0BD15D
:1006AC0010279EF801B03B460EF1020E9EE7404625
:1006BC00BDE8F08F8046D6E708231F4696E700BFBB
:1006CC00352F0008012B02D0242B00D86AE710B577
:1006DC00FFF762FD16230360002010BD012A10B540
:1006EC0009D0242A07D8074C13460A46014620682D
:1006FC00BDE8104056E7FFF74FFD162303600020BE
:10070C0010BD00BF00000020012A10B509D0242A1A
:10071C0007D8074C13460A4601462068BDE810402E
:10072C0040E7FFF739FD16230360002010BD00BF22
:10073C00000000202DE9F0478F680C469F421D46B3
:10074C00164638D88246888910F4906F0ED13D46F3
:10075C0008682A46314600F091FC0020A268236804
:10076C00D21B2B44A2602360BDE8F0874B6909695A
:10077C0003EB4308236808EBD878A3EB01096B1C47
:10078C004FEA68084B444345424684BF984642466C
:10079C00430513D51146504600F052FD074608B3E9
:1007AC004A46216900F0F4FBA38923F4906343F0DB
:1007BC008003A38107E01F460868CAE7504600F093
:1007CC009BFD074650B107EB0900A8EB0903276115
:1007DC00C4F814802F46A3602060BAE75046216904
:1007EC0000F0C8FC0C23CAF80030A3894FF0FF308E
:1007FC0043F04003A381B7E72DE9F04F936891468E
:10080C0083B0002B6ED0176880460C4608688D6844
:10081C00083744E0B4F80CC01CF4906F2ED0D4E927
:10082C000413451A03EB430303EBD373AA194FEAE2
:10083C00630A531C5345524684BF9A4652461CF4D5
:10084C00806F36D01146404600F0FAFC00283AD0B2
:10085C002A462169019000F09BFBA289019B22F49E
:10086C00906242F08002A2815819AAEB0505A5609E
:10087C00C4F814A03546B24623612060594652464E
:10088C0000F0FCFBD9F80830A16820684D1B5044DF
:10089C009E1BA5602060C9F808601EB3083757E995
:1008AC0002B6002EFAD0B542AA46B3D93546B246A6
:1008BC00E4E7404600F020FD03460028D4D1404632
:1008CC00216900F057FC0C2300224FF0FF30C8F8D0
:1008DC000030A38943F04003A381C9E9012203B08E
:1008EC00BDE8F08F00231846C9F8043003B0BDE80A
:1008FC00F08F00BF2DE9F04F1C468B890F461D066B
:10090C00804692469DB003D50B69002B00F0F38016
:10091C0000230993302320228DF82A309AF80030D6
:10092C00039401257B4C8DF82920002B76D0D146E1
:10093C0003E019F8013F002B79D0252BF9D1B9EB45
:10094C000A0B77D199F80020002A67D000234FF0CA
:10095C00FF3209F10109CDE90523049307938DF8C2
:10096C0053301A9304E0001B05FA00F0184304906E
:10097C00CA460522204619F8011B00F0C1FA049B57
:10098C000028F0D1D80644BF20228DF85320190737
:10099C0048BF2B229AF8001048BF8DF853202A2903
:1009AC0056D1039A11680432002903927EDB079119
:1009BC009AF801100AF1010A2E295BD0DFF8589140
:1009CC000322484600F09CFA48B14022049BA0EB5D
:1009DC00090002FA00F003430AF1010A04931AF821
:1009EC00011B06224D488DF8281000F089FA0028CA
:1009FC0062D04B4B002B52D003A900913A46404693
:100A0C00484B04A9AFF300800646721C06D0099B24
:100A1C00334409939AF80030002B88D1BB895B06CC
:100A2C004CBF4FF0FF3009981DB0BDE8F08FB9EB0B
:100A3C000A0BF3D05B46524639464046FFF77AFE26
:100A4C000130EBD0099B99F800205B4409937BE7BC
:100A5C00A1F13002092AAFD8079B1AF8011F03EB4A
:100A6C00830302EB4303A1F13002092AF5D92E29A5
:100A7C000793A3D19AF801102A2927D1039B0AF1D5
:100A8C0002001A680433002A0393B8BF4FF0FF33F7
:100A9C009AF8021005928246B8BF05938EE7039B25
:100AAC00073323F0070308330393B0E7494243F0BD
:100ABC000203079104937BE703A900913A46404651
:100ACC00184B04A900F0C6F806469EE70023A1F1D6
:100ADC003002092A0AF1010A05933FF66FAF1AF8A2
:100AEC00011F03EB830302EB4303A1F13002092A3C
:100AFC00F5D9059362E7402100F0A2FB386038611C
:100B0C0010B140237B6103E70C234FF0FF30C8F892
:100B1C00003089E708310008103100081431000852
:100B2C0000000000410700082DE9F04791461E46E1
:100B3C000A698B680C469A42B8BF1A46C9F800205D
:100B4C0091F843300546DDF8208013B10132C9F825
:100B5C000020226891065DD5D9F800300233C9F81F
:100B6C000030226812F0060F11461ED1E168CB1A34
:100B7C00002BD8BF114618DD002704F1190A06E036
:100B8C00D9F80030E268A2EB030CBC450CDD012364
:100B9C00524631462846C047013007F10107EFD1D4
:100BAC004FF0FF30BDE8F087216894F84330003BEC
:100BBC0018BF01238A060AD53021E21882F84310A7
:100BCC0094F845105A1C2244023382F843103146E3
:100BDC00284604F14302C0470130E1D0236803F0FA
:100BEC000603042B1DD0A3682269934225DD002740
:100BFC009B1A1F4404F11A09002401E0BC421CDAC0
:100C0C0001234A4631462846C047013004F101040D
:100C1C00F4D1C5E712F0060F12D0003B18BF012328
:100C2C00D5E7D9F80030E1682269C91AA36821EA2E
:100C3C00E1779342DCDC0029DCDC0020BDE8F087A6
:100C4C00E168D9F80030CB1A002BD8BF114693DCE1
:100C5C00ABE700BF2DE9F04317460A7E85B00C4682
:100C6C00064698460C9D01F1430C002A33D0A2F1A4
:100C7C005803D9B2202967D8202B65D8DFE813F0A8
:100C8C00DD006400640064006400640064006400BF
:100C9C00640064006400A3006E00640064006400DF
:100CAC0064006E00640064006400640021007F0036
:100CBC00BF0064006400AE0064007F006400640048
:100CCC00E40023681A0640F102812B686269191D41
:100CDC0029601B681A600023E14623613B462146CC
:100CEC003046CDF8008003AAFFF71EFF013020D05C
:100CFC004A46394630462369C047013019D023682B
:100D0C00E0689B07039919D5431A002B16DD0025C3
:100D1C0004F1190904E0E0680399431AAB420DDDB4
:100D2C0001234A4639463046C047013005F10105DA
:100D3C00F1D14FF0FF3005B0BDE8F0838842B8BF69
:100D4C00084605B0BDE8F083012384F8422004F185
:100D5C0042092361002384F84330BFE72368190656
:100D6C0002D45A0600F1BF8029680A680431296050
:100D7C001146002A6ADB0A25DFF87CE110E02368C3
:100D8C00180640F19A802B68191D296019686F2A82
:100D9C000CBF08250A25DFF860E1002384F84330F6
:100DAC006268002AA2607DDB236823F004032360C1
:100DBC00002959D1002A77D1E146082D63D0ACEB3C
:100DCC00090323618AE701222B6804F1420919689F
:100DDC0004332B6084F842102261BBE72B6800219E
:100DEC001A1D2A60D3F800906268484600F088F813
:100DFC0000287FD0A0EB090060602061AAE723687F
:100E0C0043F0200323607822DFF8F0E084F84520DB
:100E1C002A68111D2960190642D45D0640D5118837
:100E2C00D80744BF43F020032360002943D1236833
:100E3C00102523F020032360AFE75823DFF8B8E038
:100E4C0084F845302368E3E72368DCE72D2284F837
:100E5C00432062684942002AA26002DB23F00403AB
:100E6C0023600A25DFF890E0E146B1FBF5F30A4672
:100E7C0005FB131019461EF80030AA4209F8013D73
:100E8C00F3D2082D9BD12368D90798D562682369C2
:100E9C009A4294DC302309F1FF3989F800308EE74F
:100EAC001168BDE70029DFD19EF8003004F142093A
:100EBC0084F8423081E710256FE713F0400F2B6860
:100ECC0003F1040129600CBF196819885FE713F05E
:100EDC00400F2B68626903F1040129601B6814BF81
:100EEC001A801A60F7E62A68B2F9001004322A60F8
:100EFC000A463EE7606880E71C3100083031000884
:100F0C005FFA81FC810710D00346511E2AB90AE012
:100F1C009A0718460AD0013905D3184613F8012B45
:100F2C006245F5D1704700207047114603290CD853
:100F3C000029F8D00346014401E08B42F3D0184657
:100F4C0013F8012B6245F8D1ECE7024610B54CEAD8
:100F5C000C2444EA04441046036804326340A3F1B1
:100F6C00013E2EEA030313F0803F04D10439032918
:100F7C001046F0D851B10346014401E08B4205D034
:100F8C00184613F8012B6245F8D110BD002010BD96
:100F9C00844641EA000313F0030349D1403A23D3BA
:100FAC000B6803604B6843608B688360CB68C360DD
:100FBC000B6903614B6943618B698361CB69C361C5
:100FCC000B6A03624B6A43628B6A8362CB6AC362AD
:100FDC000B6B03634B6B43638B6B8363CB6BC36395
:100FEC0040304031403ADBD230320BD30B680360D7
:100FFC004B6843608B688360CB68C36010301031E2
:10100C00103AF3D20C3205D351F8043B40F8043BB0
:10101C00043AF9D2043208D0D2071CBF11F8013BB4
:10102C0000F8013B01D30B8803806046704700BF7A
:10103C00082A13D38B07B1D010F00303AED0C3F141
:10104C000403D21ADB071CBF11F8013B00F8013B6B
:10105C00A4D331F8023B20F8023B9FE7043AD9D3E2
:10106C00013A11F8013B00F8013BF9D20B780370FF
:10107C004B7843708B7883706046704788420DD9EB
:10108C008B1883420AD900EB020CBAB1624613F8F2
:10109C0001CD994202F801CDF9D170470F2A0ED833
:1010AC00034602F1FF3C4AB10CF1010C013B8C44AC
:1010BC0011F8012B614503F8012FF9D1704740EA73
:1010CC0001039B074FD1A2F1100370B501F1200C65
:1010DC0023F00F0501F1100E00F11004AC441B09B4
:1010EC005EF8105C0EF1100E44F8105C5EF81C5C9F
:1010FC00103444F81C5C5EF8185C44F8185C5EF81C
:10110C00145CE64544F8145CEAD1013312F00C0F80
:10111C0001EB031102F00F0400EB031327D08E46F2
:10112C00043C24F003064FEA940C1E441C1F5EF88A
:10113C00045B44F8045FB442F9D10CF1010402F0F1
:10114C00030203EB840301EB840102F1FF3C4AB17F
:10115C000CF1010C013B8C4411F8012B614503F897
:10116C00012FF9D170BD034602F1FF3C9CE72246EA
:10117C00EBE700BF002952D038B551F8043C0C1FE6
:10118C00002BB8BFE418054600F0F0F82B4A1368A2
:10119C00002B45D0A3420CD921686018834228D07B
:1011AC00636028461460BDE8384000F0E1B8A34203
:1011BC000FD81A465B68002BF9D11168501884427D
:1011CC001DD034D3636054602846BDE8384000F02D
:1011DC00CFB811685018A04215D028D821686018D3
:1011EC008342EFD118685B680144C4E90013546072
:1011FC00EAE718685B680144C4E90013D1E7236887
:10120C0019441160E0E720680144501883421160D2
:10121C00DAD1D3E900030144C2E90013D4E77047E3
:10122C00284663601460BDE8384000F0A1B80C2378
:10123C0028462B60BDE8384000F09AB88C0000209E
:10124C00F8B5CD1C25F0030508350C2D38BF0C2541
:10125C00002D064623DBA94221D8264F00F086F844
:10126C003A6822B3144603E063682246FBB11C467D
:10127C0023685B1BF8D40B2B15D8636894420CBF06
:10128C003B605360304600F073F804F10B00231DF3
:10129C0020F00700C21A01D01B1AA350F8BD0C2372
:1012AC0000203360F8BD23601C442560EAE77968B0
:1012BC00D1B12946304600F047F8431C01460CD00A
:1012CC00C41C24F00304A04205D03046611A00F07F
:1012DC003BF8013001D02560D4E70C233046336055
:1012EC0000F046F80020F8BD304600F02DF878608C
:1012FC00DFE700BF8C000020F8B51446F9B1CAB185
:10130C0006460D4600F036F8A04202D32F4638466A
:10131C00F8BD21463046FFF793FF07460028F6D06C
:10132C0022462946FFF734FE30462946FFF722FFB6
:10133C003846F8BD2746FFF71DFF3846F8BD114665
:10134C00BDE8F840FFF77CBF002238B5064D0446D7
:10135C0008462A6001F092FD431C00D038BD2B6872
:10136C00002BFBD0236038BD94000020704700BFD9
:10137C00704700BF51F8040C0028A0F10400BCBF5A
:10138C000B58C018704700BF82B00A4B9A6942F0E4
:10139C0020029A619A6902F020020092009A9A69DE
:1013AC0042F004029A619B6903F004030193019BD0
:1013BC0002B0704700100240642800D9642000EB92
:1013CC0080004000014B1B68586370479C00002054
:1013DC0010B50446FFF77AF84FF47A7382B22146BF
:1013EC00014801F0E6FA10BDE400002010B52F49C9
:1013FC002F48FEF78DFFF0B12E492D48FEF788FFE0
:10140C0020B304222C492A48FFF78EF830B32B491D
:10141C002748FEF77DFF002844D1294B1B78002B71
:10142C0039D0284B1A7828492848FEF74FFF27480F
:10143C00FFF7CEFF09E0224B01221A70214B1878DE
:10144C00FFF7BAFF2248FFF7C3FF10BD1C4B187003
:10145C00FFF7B2FF1F48FFF7BBFFF6E71E48FEF78A
:10146C0093FE642813D8C0B2164B1870144B1B781B
:10147C0053B9164C134B1A7818492046FEF726FF21
:10148C002046FFF7A5FFE0E7FFF796FFF1E71448CA
:10149C00FFF79EFFD9E70B4B1A7812490B48FEF762
:1014AC0015FFC4E71048FFF793FFCEE7383000086C
:1014BC003001002048300008583000088030000807
:1014CC002C010020640000208830000898010020C6
:1014DC003C3000084C30000834010020603000081B
:1014EC0070300008A0300008B830000808B5026859
:1014FC000F4B9A4200D008BD0E4B1A78212A0ED001
:10150C000D4B1B78622B04D80C49CA5401330A4A80
:10151C001370012207490A4801F09BFCEBE7064BCC
:10152C001B78064A0021D154064B01221A70E2E7BF
:10153C00003801409401002095010020300100206A
:10154C00E40000209800002072B6FEE700B58BB0D6
:10155C000023089309930193029303930493059337
:10156C000693079316484FF0804202604722426070
:10157C00836040F2E732C2600361836100F020FABD
:10158C00C0B900230893099308A90D4800F062FB29
:10159C0090B960230193002202920392059201A953
:1015AC00074800F06BFA48B9054800F0D9F80BB0C1
:1015BC005DF804FBFFF7C8FFFFF7C6FFFFF7C4FF9A
:1015CC009C00002008B50A480A4B03604FF4E13335
:1015DC00436000238360C36003610C22426183611A
:1015EC00C36101F0B6F900B908BDFFF7ADFF00BF4C
:1015FC00E40000200038014000B591B02822002101
:10160C0006A8FEF7F3FD00230193029303930493C2
:10161C000593012206924FF4803307930A9202221B
:10162C000D920E934FF4E0130F9306A800F0A8FB55
:10163C0080B90F23019302210291002303934FF4ED
:10164C0080620492059301A800F0CCFD20B911B082
:10165C005DF804FBFFF778FFFFF776FF08B500F0A5
:10166C0055FBFFF7C9FFFFF78FFEFFF76FFFFFF783
:10167C00A9FF00210F4800F07FFA0020FFF79CFE25
:10168C0001220D490D4801F0E4FB0D48FFF7A0FEC7
:10169C000C4B1B78DBB2012BFAD1FFF7A7FE002312
:1016AC00094A1370074A137001220349034801F0D9
:1016BC00D0FBEDE79C00002094010020E40000200A
:1016CC00CC3000089800002095010020FEE7FEE7D2
:1016DC00FEE7FEE7FEE770477047704708B500F07D
:1016EC0027FB08BD08B5024801F054FA08BD00BF3D
:1016FC00E400002082B00E4B9A6942F001029A611C
:10170C009A6902F001020092009ADA6942F0805262
:10171C00DA61DB6903F080530193019B054A53683E
:10172C0023F0E06343F08063536002B0704700BF66
:10173C0000100240000001400368B3F1804F00D05C
:10174C00704782B003F50433DA6942F00102DA61C2
:10175C00DB6903F001030193019B02B070470000A9
:10176C0000B587B000230293039304930593036899
:10177C00B3F1804F02D007B05DF804FB03F50433DE
:10178C009A6942F004029A619B6903F00403019385
:10179C00019B0123029302230393059302A90248A0
:1017AC0000F0FCFDE7E700BF0008014070B586B013
:1017BC000023029303930493059302681B4B9A42F4
:1017CC0001D006B070BD03F558439A6942F48042CB
:1017DC009A619A6902F480420092009A9A6942F0E6
:1017EC0004029A619B6903F004030193019B4FF47B
:1017FC000073029302250395032305930C4E02A953
:10180C00304600F0CBFD4FF4806302930024039428
:10181C00049402A9304600F0C1FD22462946252039
:10182C0000F050FF252000F085FFCAE7003801408A
:10183C000008014070B4036A026A22F001020262DD
:10184C004668826922F073020C6844EA020523F0B0
:10185C0002028B6813430D4CA04209D00B4CA042E2
:10186C000DD0466085614A684263036270BC704764
:10187C0023F00803CA68134323F00403EEE726F4AD
:10188C0040764A6932438E691643EAE7002C0140E0
:10189C0030B4036A026A22F4807202624568C2693B
:1018AC0022F073020C68224323F400738C6843EA21
:1018BC0004230F4CA04209D00D4CA0420ED0456021
:1018CC00C2614A68C263036230BC704723F4006390
:1018DC00CC6843EA042323F48063EDE725F44055F8
:1018EC004C6945EA04158C6945EA0415E7E700BF25
:1018FC00002C014030B4036A026A22F48052026266
:10190C004468C26922F4E6420D6842EA052223F4D7
:10191C0000538D6843EA0533074DA84206D0446056
:10192C00C2614A680264036230BC704724F480448C
:10193C004D6944EA8514F2E7002C014003681F4A04
:10194C0090420AD0B0F1804F07D0A2F59432904269
:10195C0003D002F58062904203D123F070034A68F1
:10196C001343164A90420AD0B0F1804F07D0A2F52B
:10197C009432904203D002F58062904203D123F45A
:10198C004073CA68134323F080034A69134303600E
:10199C008B68C3620B688362084B98420AD00123A0
:1019AC004361036913F0010F03D0036923F00103B2
:1019BC00036170470B690363F1E700BF002C014022
:1019CC0040B310B5044690F83D30F3B1022384F8CF
:1019DC003D30214651F8040BFFF7B0FF012384F88A
:1019EC00463084F83E3084F83F3084F8403084F838
:1019FC00413084F8423084F8433084F8443084F821
:101A0C00453084F83D30002010BD80F83C30FFF7A5
:101A1C0093FEDBE70120704730B4036A026A22F0C0
:101A2C00100202624468826922F4E6420D6842EABE
:101A3C00052223F020038D6843EA05130E4DA842BE
:101A4C0009D00D4DA8420ED0446082614A68826371
:101A5C00036230BC704723F08003CD6843EA051362
:101A6C0023F04003EDE724F440644D6944EA850417
:101A7C008D6944EA8504E7E7002C014038B590F8FD
:101A8C003C30012B66D004460D46012380F83C30D7
:101A9C000C2A5AD8DFE802F0075959591B595959E1
:101AAC003059595944000068FFF7C4FE2268936905
:101ABC0043F0080393612268936923F00403936154
:101ACC002268936929690B43936100203EE000680A
:101ADC00FFF7A2FF2268936943F4006393612268C5
:101AEC00936923F48063936122689369296943EABB
:101AFC0001239361002029E00068FFF7C9FE2268EA
:101B0C00D36943F00803D3612268D36923F004033B
:101B1C00D3612268D36929690B43D361002015E096
:101B2C000068FFF7E7FE2268D36943F40063D361D2
:101B3C002268D36923F48063D3612268D36929694D
:101B4C0043EA0123D361002000E00120002384F844
:101B5C003C3038BD0220FCE701F01F01012303FAE1
:101B6C0001FC036A23EA0C030362036A02FA01F123
:101B7C000B4303627047000010B50446084651BB86
:101B8C0094F83E30DBB2013B18BF0123002B5BD134
:101B9C00002839D1022384F83E3001220146206806
:101BAC00FFF7DAFF23682A4A93423DD02368284A7C
:101BBC0093423ED0B3F1804F3BD0A2F59432934286
:101BCC0037D002F58062934233D01A6842F001029A
:101BDC001A60002039E0042908D008290DD094F8A7
:101BEC004130DBB2013B18BF0123CFE794F83F3003
:101BFC00DBB2013B18BF0123C8E794F84030DBB2DD
:101C0C00013B18BF0123C1E7042805D0082807D0E1
:101C1C00022384F84130C0E7022384F83F30BCE74C
:101C2C00022384F84030B8E75A6C42F400425A64FC
:101C3C00BCE79A6802F00702062A07D01A6842F03D
:101C4C0001021A60002000E0012010BD0020FCE71A
:101C5C00002C014090F83C30012B2CD010B4012307
:101C6C0080F83C30022380F83D3003685A689C6849
:101C7C0022F0700C0A6842EA0C025A6003680F4AA0
:101C8C0093420AD0B3F1804F07D0A2F5943293421D
:101C9C0003D002F58062934204D124F080044A6898
:101CAC0014439C60012380F83D30002380F83C30C5
:101CBC00184610BC70470220704700BF002C014032
:101CCC0010B504460E4B18784FF47A73B3FBF0F34F
:101CDC000C4A1068B0FBF3F000F03AFD68B90F2C19
:101CEC0001D901200AE0002221464FF0FF3000F01C
:101CFC00E9FC054B1C60002000E0012010BD00BF7A
:101D0C00650000206C0000206800002008B5074A20
:101D1C00136843F010031360032000F0C1FC0F2084
:101D2C00FFF7CEFFFFF7E6FC002008BD00200240C5
:101D3C00034A1168034B1B780B441360704700BFB8
:101D4C00FC01002065000020014B1868704700BFA3
:101D5C00FC01002082B0084B1B68084AA2FB03233D
:101D6C005B0A00FB03F3019300BF019B5A1E019217
:101D7C00002BF9D102B070476C000020D34D6210DB
:101D8C00002800F0F18170B582B00446036813F0AE
:101D9C00010F2CD0994B5B6803F00C03042B1DD066
:101DAC00964B5B6803F00C03082B12D06368B3F5F9
:101DBC00803F41D0002B55D103F1804303F5043310
:101DCC001A6822F480321A601A6822F480221A608F
:101DDC0037E08A4B5B6813F4803FE7D0874B1B6876
:101DEC0013F4003F03D06368002B00F0BF8123681D
:101DFC0013F0020F75D0814B5B6813F00C0F5FD0A2
:101E0C007E4B5B6803F00C03082B54D02369002B2A
:101E1C0000F08A807A4B01221A60FFF795FF054685
:101E2C00764B1B6813F0020F75D1FFF78DFF401B2B
:101E3C000228F5D903209EE1704A136843F48033DD
:101E4C001360636843B3FFF77FFF05466B4B1B685A
:101E5C0013F4003FCBD1FFF777FF401B6428F5D973
:101E6C00032088E1B3F5A02F09D0644B1A6822F443
:101E7C0080321A601A6822F480221A60E1E703F1BA
:101E8C008043A3F53C331A6842F480221A601A6826
:101E9C0042F480321A60D4E7FFF756FF0546574BE1
:101EAC001B6813F4003FA2D0FFF74EFF401B6428C1
:101EBC00F5D903205FE1514B5B6813F4803FA5D14A
:101ECC004E4B1B6813F0020F03D02369012B40F01B
:101EDC004F814A4A136823F0F803616943EAC1034E
:101EEC001360236813F0080F33D0A369002B5CD068
:101EFC00434B0122C3F88024FFF726FF05463F4BD6
:101F0C005B6A13F0020F21D1FFF71EFF401B022862
:101F1C00F5D903202FE1394A136823F0F8036169DE
:101F2C0043EAC1031360DCE7354B00221A60FFF76C
:101F3C000BFF0546314B1B6813F0020FD1D0FFF796
:101F4C0003FF401B0228F5D9032014E10120FFF701
:101F5C0001FF236813F0040F00F09680274BDB6918
:101F6C0013F0805F34D1254BDA6942F08052DA618C
:101F7C00DB6903F080530193019B0125214B1B6806
:101F8C0013F4807F26D0E368012B3DD0002B53D176
:101F9C0003F1804303F504331A6A22F001021A623A
:101FAC001A6A22F004021A6233E0154B0022C3F8BD
:101FBC008024FFF7C9FE0546104B5B6A13F0020F35
:101FCC00C7D0FFF7C1FE401B0228F5D90320D2E091
:101FDC000025D3E70B4A136843F480731360FFF7B3
:101FEC00B3FE0646074B1B6813F4807FCBD1FFF77B
:101FFC00ABFE801B6428F5D90320BCE00010024026
:10200C0000004242007000405F4A136A43F0010333
:10201C001362E36833B3FFF797FE06465A4B1B6A0D
:10202C0013F0020F2FD1FFF78FFE801B41F2883384
:10203C009842F3D903209EE0052B09D0524B1A6A23
:10204C0022F001021A621A6A22F004021A62E0E714
:10205C004D4B1A6A42F004021A621A6A42F00102EB
:10206C001A62D6E7FFF770FE0646474B1B6A13F061
:10207C00020F08D0FFF768FE801B41F288339842AC
:10208C00F3D9032077E0E5B9E369002B72D03E4A1F
:10209C00526802F00C02082A56D0022B17D03B4B88
:1020AC0000221A66FFF750FE0446374B1B6813F0EC
:1020BC00007F47D0FFF748FE001B0228F5D903200C
:1020CC0059E0314AD36923F08053D361DCE72F4BBD
:1020DC0000221A66FFF738FE05462B4B1B6813F0DF
:1020EC00007F06D0FFF730FE401B0228F5D90320F5
:1020FC0041E0236AB3F5803F1AD023494B6823F49F
:10210C007413226A606A024313434B601F4B012213
:10211C001A66FFF719FE04461B4B1B6813F0007F71
:10212C000ED1FFF711FE001B0228F5D9032022E087
:10213C00154A536823F40033A1680B435360DCE762
:10214C00002018E0002016E0012B16D00E4B5B6827
:10215C0003F48031226A914211D103F47013626A44
:10216C0093420ED1002006E001207047012002E0CE
:10217C00012000E0002002B070BD0120FBE701202F
:10218C00F9E70120F7E700BF0010024000004242CF
:10219C000F4B5B6803F00C02082A01D00D48704706
:1021AC00C3F383420C49885C13F4803F0BD0084B7B
:1021BC005B68C3F34043094AD35C064A02FB00F058
:1021CC00B0FBF3F07047064B03FB00F0704700BF09
:1021DC000010024000127A00DC300008EC300008DD
:1021EC0000093D00002800F0A08070B50D460446A3
:1021FC00524B1B6803F007038B420BD24F4A1368F8
:10220C0023F007030B431360136803F007038B429F
:10221C0040F08D80236813F0020F17D013F0040FD9
:10222C0004D0474A536843F4E0635360236813F0C7
:10223C00080F04D0424A536843F460535360404A39
:10224C00536823F0F003A1680B435360236813F029
:10225C00010F31D06368012B20D0022B25D0384AD6
:10226C00126812F0020F64D035494A6822F003025A
:10227C0013434B60FFF768FD0646314B5B6803F078
:10228C000C036268B3EB820F16D0FFF75DFD801B69
:10229C0041F288339842F0D9032045E0284A12686D
:1022AC0012F4003FE0D101203EE0254A126812F002
:1022BC00007FD9D1012037E0204B1B6803F00703C6
:1022CC00AB420AD91D4A136823F007032B43136052
:1022DC00136803F00703AB422DD1236813F0040FEE
:1022EC0006D0174A536823F4E063E1680B4353604C
:1022FC00236813F0080F07D0114A536823F4605376
:10230C00216943EAC1035360FFF742FF0C4B5B6842
:10231C00C3F303130B4AD35CD8400B4B18600B4B25
:10232C001868FFF7CDFC002070BD0120704701201C
:10233C00FAE70120F8E70120F6E700BF0020024091
:10234C0000100240F03000086C00002068000020F3
:10235C00014B1868704700BF6C00002008B5FFF7F0
:10236C00F7FF044B5B68C3F30223034AD35CD840EA
:10237C0008BD00BF001002400031000808B5FFF78F
:10238C00E7FF044B5B68C3F3C223034AD35CD8401A
:10239C0008BD00BF001002400031000870B582B0CB
:1023AC000024A446A6E0804DAA4210D007D97F4D48
:1023BC00AA420CD005F58035AA4208D013E0A5F549
:1023CC008015AA4203D005F57025AA4207D18A6868
:1023DC00002A58D0012A51D04361082403E0A5F506
:1023EC008015AA42F3D0BEF1FF0F4ED80646BEF1BF
:1023FC00FF0F4CD84FEA8C0233680F25954023EA27
:10240C00050304FA02F2134333604B6813F0805F48
:10241C006ED0674B9A6942F001029A619B6903F096
:10242C0001030193019B4FEA9C02951C614B53F8ED
:10243C0025600CF003039D000F23AB4026EA030636
:10244C005D4B984229D003F58063984200F08E8052
:10245C0003F58063984200F08B8003F5806398420B
:10246C0019D004231AE0CC68BDE7CC680434BAE771
:10247C00CC680834B7E7CC680C34B4E703610824A3
:10248C00B1E70024AFE70424ADE7061DAFE7ACF1DC
:10249C0008029200B0E7032300E00023AB40334373
:1024AC000232444D45F822304B6813F4801F61D042
:1024BC00424A936843EA0E0393604B6813F4001F7F
:1024CC005ED03E4AD36843EA0E03D3604B6813F4E4
:1024DC00003F5BD0394A536843EA0E0353604B68A4
:1024EC0013F4803F58D0354A136843EA0E03136047
:1024FC000CF1010C0A6832FA0CF353D0012303FAE5
:10250C000CF302EA030E33EA0202F1D14A68122AF2
:10251C003FF649AF122A3FF666AF01A555F822F0F7
:10252C00DB230008732400087D2400088F24000896
:10253C00F3230008F3230008F3230008F323000817
:10254C00F3230008F3230008F3230008F323000807
:10255C00F3230008F3230008F3230008F3230008F7
:10256C00F32300087724000883240008012395E74F
:10257C00022393E7114A936823EA0E0393609CE7C6
:10258C000E4AD36823EA0E03D3609FE70B4A5368C5
:10259C0023EA0E035360A2E7084A136823EA0E03EA
:1025AC001360A5E702B070BD0000221000003110CE
:1025BC0000100240000001400008014000040140EE
:1025CC0090F82130DBB2022B06D004238363002366
:1025DC0080F82030012070470268136823F00E0346
:1025EC0013600268136823F001031360036CC16B62
:1025FC00012202FA03F34B6080F82120002380F8BB
:10260C00203018467047000008B590F82130DBB236
:10261C00022B03D004238363012008BD02681368D6
:10262C0023F00E0313600268136823F00103136098
:10263C000368194A934214D0143293421FD01432B7
:10264C0093421ED0143293421ED0143293421ED0A9
:10265C001432934202D04FF0807203E04FF4801298
:10266C0000E001220D4B5A60012380F82130002339
:10267C0080F82030436B6BB198470020CDE71022D7
:10268C00F0E74FF48072EDE74FF48052EAE74FF435
:10269C008032E7E70020C0E708000240000002405B
:1026AC00074AD36823F4E0631B041B0C000200F4FC
:1026BC00E060034343F0BF6343F40033D3607047DF
:1026CC0000ED00E000B5194BDB68C3F30223C3F146
:1026DC00070CBCF1040F28BF4FF0040C03F1040EDF
:1026EC00BEF1060F18D9033B4FF0FF3E0EFA0CFC5F
:1026FC0021EA0C0199400EFA03F322EA0303194371
:10270C0000280BDB0901C9B200F1604000F5614003
:10271C0080F800135DF804FB0023E5E700F00F00E0
:10272C000901C9B2024B1954F4E700BF00ED00E0F7
:10273C0014ED00E0002807DB00F01F024009012324
:10274C009340024A42F82030704700BF00E100E09D
:10275C000138B0F1807F0BD24FF0E0235861054A6D
:10276C00F02182F823100020986107221A6170472B
:10277C000120704700ED00E0026802F10C0353E801
:10278C00003F23F490730C3242E800310029F3D15E
:10279C00026802F1140353E8003F23F001031432E2
:1027AC0042E800310029F3D1036B012B05D0202323
:1027BC0080F84230002303637047026802F10C0377
:1027CC0053E8003F23F010030C3242E8003100299B
:1027DC00F3D1ECE790F84130DBB2212B01D0022091
:1027EC0070478368B3F5805F17D0036A5A1C026286
:1027FC001A7803685A60C38C9BB2013B9BB2C384AA
:10280C004BB90268D36823F08003D3600268D368A5
:10281C0043F04003D360002070470369002BE4D1E0
:10282C00036A1B880268C3F308035360036A02330C
:10283C000362E0E710B504460268136923F44053C1
:10284C00C1680B43136183680269134342691A43DD
:10285C000168CB6823F4B05323F00C031343CB6013
:10286C000268536923F4407381690B435361026816
:10287C00134B9A4220D0FFF771FD024602EB820205
:10288C0002EB820263689B00B2FBF3F20D48A0FBE3
:10289C0002314909642303FB11231B013233A0FBD2
:1028AC0003235B0903F0F00202EB011203F00F03A8
:1028BC00216813448B6010BDFFF760FD0246DDE715
:1028CC00003801401F85EB512DE9F04383B00546DC
:1028DC000E4617469946DDF828802C68246836EA9F
:1028EC0004030CBF4FF0010C4FF0000CBC4528D179
:1028FC00B8F1FF3FF1D0FFF727FAA0EB09004045F4
:10290C0023D8B8F1000F22D02B68DA6812F0040F2C
:10291C00E3D0802EE1D0402EDFD01A6812F0080FE1
:10292C00DBD0002401941A6801925B680193019B2F
:10293C002846FFF721FF08236B6485F840400120EF
:10294C0000E0002003B0BDE8F0830320FAE7032089
:10295C00F8E760B310B5044690F8413013B3242364
:10296C0084F841302268D36823F40053D3602046A6
:10297C00FFF760FF2268136923F490431361226808
:10298C00536923F02A0353612268D36843F400533C
:10299C00D36000206064202384F8413084F84230F6
:1029AC00606310BD80F84030FEF700FFD7E70120D0
:1029BC0070472DE9F04182B01E4690F84130DBB2F1
:1029CC00202B56D104460D469046002955D00AB905
:1029DC0001204FE000234364212380F84130FFF7AE
:1029EC00B3F90746A4F82480A4F82680A368B3F5AD
:1029FC00805F02D04FF0000814E023692BB34FF036
:102A0C0000080FE0202384F84130032032E038F82E
:102A1C00023B2268C3F308035360E28C92B2013A82
:102A2C0092B2E284E38C9BB293B100963B460022B7
:102A3C0080212046FFF748FF0028E3D1002DE6D087
:102A4C0015F8012B23685A60E7E7A8460025E9E74B
:102A5C0000963B46002240212046FFF735FF18B96F
:102A6C00202384F8413005E0202384F841300320F2
:102A7C0000E0022002B0BDE8F0810120FAE77047C7
:102A8C0008B50168CA6822F04002CA60202280F8AA
:102A9C004120FFF7F4FF002008BD704708B5406ADD
:102AAC000023C385C384FFF7F8FF08BD704790F877
:102ABC004230DBB2222B69D18368B3F5805F4FD0F3
:102ACC00826AB3F5805F04D0002B56D10369002BCA
:102ADC0053D103685B681370836A01338362C38DBF
:102AEC009BB2013B9BB2C385002B51D100B583B087
:102AFC000268D36823F02003D3600268D36823F400
:102B0C008073D3600268536923F00103536120235F
:102B1C0080F8423000234363036B012B33D1002335
:102B2C000363026802F10C0353E8003F23F0100327
:102B3C000C3242E800310029F3D103681A6812F014
:102B4C00100F06D0002201921A6801925B68019363
:102B5C00019B818DFFF7AAFF002003B05DF804FBF9
:102B6C000269002AACD1826A03685B68C3F308036C
:102B7C001380836A02338362B1E703685B6803F0F6
:102B8C007F031370A8E7FEF7B1FCE5E7022070475E
:102B9C000020704730B583B0044602681368D068D3
:102BAC00516913F00F0505D113F0200F02D010F06E
:102BBC00200F19D12DB111F0010119D110F4907F12
:102BCC0016D1216B01297DD013F0800F03D010F0AA
:102BDC00800F40F0188113F0400F03D010F0400F1D
:102BEC0040F0158103B030BD2046FFF760FFF9E7D8
:102BFC0013F0010F06D010F4807F03D0626C42F00A
:102C0C000102626413F0040F04D019B1626C42F03B
:102C1C000202626413F0020F04D019B1626C42F02C
:102C2C000402626413F0080F07D010F0200F00D1DB
:102C3C0019B1626C42F008026264626C002AD1D055
:102C4C0013F0200F02D010F0200F29D123685B69FC
:102C5C0003F04003626C12F0080F00D163B32046FE
:102C6C00FFF78AFD23685B6913F0400F20D02268C0
:102C7C0002F1140353E8003F23F04003143242E8FE
:102C8C0000310029F3D1E36B73B1634A5A63E06BF3
:102C9C00FFF7BAFC0028A5D0E06B436B9847A1E77F
:102CAC002046FFF704FFD1E72046FFF7F6FE99E731
:102CBC002046FFF7F2FE95E72046FFF7EEFE0023D5
:102CCC0063648FE713F0100F3FF47EAF10F0100F1A
:102CDC003FF47AAF00230193136801935368019377
:102CEC00019B536913F0400F51D0E26B13685B6882
:102CFC009BB2002B3FF476AFA18D99427FF672AF59
:102D0C00E3859369202B37D0226802F10C0353E83A
:102D1C00003F23F480730C3242E800310029F3D1D8
:102D2C00226802F1140353E8003F23F0010314322C
:102D3C0042E800310029F3D1226802F1140353E870
:102D4C00003F23F04003143242E800310029F3D154
:102D5C00202384F8423000232363226802F10C0301
:102D6C0053E8003F23F010030C3242E800310029F5
:102D7C00F3D1E06BFFF724FC02236363A18DE38D99
:102D8C009BB2C91A89B22046FFF790FE2AE7A18DA3
:102D9C00E38D9BB2C91A89B2E38D9BB2002B3FF431
:102DAC0021AF00293FF41EAF226802F10C0353E857
:102DBC00003F23F490730C3242E800300028F3D12A
:102DCC00226802F1140353E8003F23F0010314328C
:102DDC0042E800300028F3D1202384F8423000234D
:102DEC002363226802F10C0353E8003F23F0100325
:102DFC000C3242E800300028F3D1022363632046F2
:102E0C00FFF754FEEEE62046FFF7E4FCEAE6204628
:102E1C00FFF736FEE6E600BFA92A0008816282852C
:102E2C00C28500234364222380F84230036923B116
:102E3C000268D36843F48073D3600268536943F02B
:102E4C00010353610268D36843F02003D360002070
:102E5C00704708B590F84230DBB2202B08D149B14D
:102E6C000AB9012008BD00230363FFF7D7FFF9E778
:102E7C000220F7E70120F5E77047000010B5034684
:102E8C000C4A0D490D48006840B10C4800680344D9
:102E9C00521A934206D8094A136010BD0748084CD1
:102EAC000460F2E7FDF778F90C2303604FF0FF3074
:102EBC00F3E700BF005000200004000000020020D7
:102ECC0008020020FFF7D8FF0B480C490C4A0023DE
:102EDC0002E0D458C4500433C4188C42F9D3094AC4
:102EEC00094C002301E013600432A242FBD3FDF72E
:102EFC0059F9FEF7B3FB704700000020700000206A
:102F0C004C3100087000002004020020FEE7000095
:102F1C00F8B500BFF8BC08BC9E467047F8B500BFBA
:082F2C00F8BC08BC9E4670478A
:102F34000020202020202020202028282828282085
:102F4400202020202020202020202020202020207D
:102F540020881010101010101010101010101010E5
:102F640010040404040404040404041010101010D5
:102F7400101041414141414101010101010101019F
:102F840001010101010101010101010110101010F1
:102F94001010424242424242020202020202020271
:102FA40002020202020202020202020210101010C5
:102FB40020000000000000000000000000000000ED
:102FC40000000000000000000000000000000000FD
:102FD40000000000000000000000000000000000ED
:102FE40000000000000000000000000000000000DD
:102FF40000000000000000000000000000000000CD
:1030040000000000000000000000000000000000BC
:1030140000000000000000000000000000000000AC
:10302400000000000000000000000000000000009C
:10303400000000004F4E00004C4544204F4E0D0A46
:10304400000000004F4646004C4544204F46460DC4
:103054000A00000050574D3A0000000050574D2020
:103064003D20256425250D0A0000000050574D2001
:10307400696E76616C69640D0A00000053746174B2
:10308400757300004C45443A204F4E2C2050574D48
:103094003A20256425250D0A000000004C45443AD9
:1030A400204F46462C2050574D3A20256425250DA7
:1030B4000A000000556E6B6E6F776E20636F6D6D46
:1030C400616E640D0A00000053797374656D2052BB
:1030D400656164790D0A0000020304050607080906
:1030E4000A0B0C0D0E0F101001020000000000006E
:1030F40000000000010203040607080900000000A4
:1031040001020304232D302B20000000686C4C00C6
:10311400656667454647000030313233343536370B
:1031240038394142434445460000000030313233CF
:1031340034353637383961626364656600000000EF
:043144007501000809
:043148004D0100082D
:10314C00040000200000000000000000000000004F
:10315C000000000000000000000000000000000063
:10316C000000000000000000000000000000000053
:10317C000000000000000000000000000000000043
:10318C000000000000000000000000000000000033
:10319C000000000000000000000000000000000023
:1031AC0000000000320100001000000000127A0044
:0400000508002ED1F0
:00000001FF
