:020000040800F2
:1000000000500020E9120008190400081B04000831
:100010001D0400081F04000821040008000000005F
:1000200000000000000000000000000023040008A1
:100030002504000800000000270400082904000827
:100040003113000831130008311300083113000880
:100050003113000831130008311300083113000870
:100060003113000831130008311300083113000860
:100070003113000831130008311300083113000850
:100080003113000831130008311300083113000840
:100090003113000831130008311300083113000830
:1000A0003113000831130008311300083113000820
:1000B0003113000831130008311300083113000810
:1000C0003113000831130008311300083113000800
:1000D00031130008311300083113000831130008F0
:1000E000311300083113000831130008000000002C
:1000F0000000000000000000000000000000000000
:0C01000000000000000000005FF808F1A3
:10010C000348044B834202D0034B03B1184770479A
:10011C000C0000200C0000200000000005480649DF
:10012C000B1AD90F01EBA301491002D0034B03B1F9
:10013C00184770470C0000200C0000200000000045
:10014C0010B5064C237843B9FFF7DAFF044B13B113
:10015C000448AFF300800123237010BD0C00002075
:10016C00000000003413000808B5044B1BB104490F
:10017C000448AFF30080BDE80840CFE70000000062
:10018C00100000203413000870B50D4E0D4D761B79
:10019C00B61006D0002455F8043B01349847A6420B
:1001AC00F9D1094E094D01F0BFF8761BB61006D0F7
:1001BC00002455F8043B01349847A642F9D170BD90
:1001CC0070130008701300087413000870130008F3
:1001DC00830730B548D0541E002A3FD00346CAB21C
:1001EC0001E0013C3AD303F8012B9D07F9D1032C14
:1001FC002DD9CDB245EA05250F2C45EA054536D952
:10020C00A4F1100222F00F0C03F1200EE6444FEA89
:10021C00121C03F1100242E9045542E90255103256
:10022C007245F8D10CF1010214F00C0F03EB021221
:10023C0004F00F0C13D0ACF1040323F003030433CC
:10024C00134442F8045B9342FBD10CF003042CB131
:10025C00CAB21C4403F8012B9C42FBD130BD64464E
:10026C001346002CF4D1F9E703461446BFE71A46AF
:10027C00A446E0E782B00A4B9A6942F020029A61E8
:10028C009A6902F020020092009A9A6942F00402E4
:10029C009A619B6903F004030193019B02B07047C0
:1002AC000010024072B6FEE700B58BB00023089335
:1002BC000993019302930393049305930693079375
:1002CC0023484FF08042026047224260836040F234
:1002DC00E732C2600361836100F0C6F958BB0023AA
:1002EC000893099308A91A4800F008FB28BB60235F
:1002FC000193002202920392059201A9144800F086
:10030C0011FAE0B904220DEB0201114800F00AFACF
:10031C00B8B9082201A90E4800F004FA98B90C22C9
:10032C0001A90B4800F0FEF978B9094800F0B0F8C3
:10033C000BB05DF804FBFFF7B5FFFFF7B3FFFFF75A
:10034C00B1FFFFF7AFFFFFF7ADFFFFF7ABFF00BF4C
:10035C002800002000B591B02822002106A8FFF744
:10036C0037FF002301930293039304930593012217
:10037C0006924FF4803307930A9202220D920E9349
:10038C004FF4E0130F9306A800F04EFB80B90F2337
:10039C00019302210291002303934FF48062049293
:1003AC00059301A800F072FD20B911B05DF804FBB3
:1003BC00FFF778FFFFF776FF08B500F0FBFAFFF7C1
:1003CC00C9FFFFF757FFFFF76FFF0F4C236864223D
:1003DC005A634FF496729A634FF4FA72DA634FF4DD
:1003EC002F721A640021204600F01AFA04212046CC
:1003FC0000F016FA0821204600F012FA0C212046D3
:10040C0000F00EFAFEE700BF28000020FEE7FEE732
:10041C00FEE7FEE7FEE770477047704708B500F04F
:10042C00DBFA08BD82B00E4B9A6942F001029A6168
:10043C009A6902F001020092009ADA6942F0805245
:10044C00DA61DB6903F080530193019B054A536821
:10045C0023F0E06343F00073536002B0704700BFB9
:10046C0000100240000001400368B3F1804F00D03F
:10047C00704782B003F50433DA6942F00102DA61A5
:10048C00DB6903F001030193019B02B0704700008C
:10049C0000B587B00023029303930493059303687C
:1004AC00B3F1804F02D007B05DF804FB03F50433C1
:1004BC009A6942F004029A619B6903F00403019368
:1004CC00019B0F23029302230393059302A9024875
:1004DC0000F092FDE7E700BF0008014070B4036A2A
:1004EC00026A22F0010202624668826922F07302FB
:1004FC000C6844EA020523F002028B6813430D4C8E
:10050C00A04209D00B4CA0420DD0466085614A68D0
:10051C004263036270BC704723F00803CA6813433C
:10052C0023F00403EEE726F440764A6932438E69E1
:10053C001643EAE7002C014030B4036A026A22F445
:10054C00807202624568C26922F073020C68224311
:10055C0023F400738C6843EA04230F4CA04209D0A7
:10056C000D4CA0420ED04560C2614A68C263036262
:10057C0030BC704723F40063CC6843EA042323F4B3
:10058C008063EDE725F440554C6945EA04158C6908
:10059C0045EA0415E7E700BF002C014030B4036ABC
:1005AC00026A22F4805202624468C26922F4E64272
:1005BC000D6842EA052223F400538D6843EA0533A3
:1005CC00074DA84206D04460C2614A6802640362C7
:1005DC0030BC704724F480444D6944EA8514F2E73A
:1005EC00002C014003681F4A90420AD0B0F1804FA2
:1005FC0007D0A2F59432904203D002F5806290426B
:10060C0003D123F070034A681343164A90420AD070
:10061C00B0F1804F07D0A2F59432904203D002F58E
:10062C008062904203D123F44073CA68134323F0D1
:10063C0080034A69134303608B68C3620B6883624F
:10064C00084B98420AD001234361036913F0010F50
:10065C0003D0036923F00103036170470B69036343
:10066C00F1E700BF002C014040B310B5044690F8F0
:10067C003D30F3B1022384F83D30214651F8040B90
:10068C00FFF7B0FF012384F8463084F83E3084F83D
:10069C003F3084F8403084F8413084F8423084F89C
:1006AC00433084F8443084F8453084F83D300020E1
:1006BC0010BD80F83C30FFF7D7FEDBE70120704718
:1006CC0030B4036A026A22F0100202624468826942
:1006DC0022F4E6420D6842EA052223F020038D68DD
:1006EC0043EA05130E4DA84209D00D4DA8420ED079
:1006FC00446082614A688263036230BC704723F0B5
:10070C008003CD6843EA051323F04003EDE724F49E
:10071C0040644D6944EA85048D6944EA8504E7E741
:10072C00002C014038B590F83C30012B66D00446C3
:10073C000D46012380F83C300C2A5AD8DFE802F031
:10074C00075959591B59595930595959440000687E
:10075C00FFF7C4FE2268936943F008039361226893
:10076C00936923F0040393612268936929690B430D
:10077C00936100203EE00068FFF7A2FF22689369B6
:10078C0043F4006393612268936923F4806393615B
:10079C0022689369296943EA01239361002029E0C7
:1007AC000068FFF7C9FE2268D36943F00803D361E0
:1007BC002268D36923F00403D3612268D3692969C1
:1007CC000B43D361002015E00068FFF7E7FE2268B9
:1007DC00D36943F40063D3612268D36923F4806343
:1007EC00D3612268D369296943EA0123D3610020CC
:1007FC0000E00120002384F83C3038BD0220FCE7E7
:10080C0001F01F01012303FA01FC036A23EA0C0324
:10081C000362036A02FA01F10B43036270470000A2
:10082C0010B50446084651BB94F83E30DBB2013B90
:10083C0018BF0123002B5BD1002839D1022384F887
:10084C003E30012201462068FFF7DAFF23682A4A6E
:10085C0093423DD02368284A93423ED0B3F1804F57
:10086C003BD0A2F59432934237D002F5806293428A
:10087C0033D01A6842F001021A60002039E00429D2
:10088C0008D008290DD094F84130DBB2013B18BFD9
:10089C000123CFE794F83F30DBB2013B18BF0123B3
:1008AC00C8E794F84030DBB2013B18BF0123C1E725
:1008BC00042805D0082807D0022384F84130C0E76B
:1008CC00022384F83F30BCE7022384F84030B8E7B9
:1008DC005A6C42F400425A64BCE79A6802F0070270
:1008EC00062A07D01A6842F001021A60002000E0C4
:1008FC00012010BD0020FCE7002C014090F83C309A
:10090C00012B2CD010B4012380F83C30022380F84A
:10091C003D3003685A689C6822F0700C0A6842EA01
:10092C000C025A6003680F4A93420AD0B3F1804F0D
:10093C0007D0A2F59432934203D002F58062934221
:10094C0004D124F080044A6814439C60012380F88D
:10095C003D30002380F83C30184610BC7047022014
:10096C00704700BF002C014010B504460E4B1878A0
:10097C004FF47A73B3FBF0F30C4A1068B0FBF3F04E
:10098C0000F096FC68B90F2C01D901200AE0002276
:10099C0021464FF0FF3000F053FC054B1C6000204B
:1009AC0000E0012010BD00BF000000200800002066
:1009BC000400002008B5074A136843F010031360C5
:1009CC00032000F02BFC0F20FFF7CEFFFFF72AFDD2
:1009DC00002008BD00200240034A1168034B1B781D
:1009EC000B441360704700BF700000200000002013
:1009FC00014B1868704700BF7000002082B0084B94
:100A0C001B68084AA2FB03235B0A00FB03F3019358
:100A1C0000BF019B5A1E0192002BF9D102B0704706
:100A2C0008000020D34D6210002800F0F18170B551
:100A3C0082B00446036813F0010F2CD0994B5B680D
:100A4C0003F00C03042B1DD0964B5B6803F00C03D6
:100A5C00082B12D06368B3F5803F41D0002B55D1E1
:100A6C0003F1804303F504331A6822F480321A60D0
:100A7C001A6822F480221A6037E08A4B5B6813F400
:100A8C00803FE7D0874B1B6813F4003F03D06368AB
:100A9C00002B00F0BF81236813F0020F75D0814B3F
:100AAC005B6813F00C0F5FD07E4B5B6803F00C039C
:100ABC00082B54D02369002B00F08A807A4B01223A
:100ACC001A60FFF795FF0546764B1B6813F0020F73
:100ADC0075D1FFF78DFF401B0228F5D903209EE14D
:100AEC00704A136843F480331360636843B3FFF7B1
:100AFC007FFF05466B4B1B6813F4003FCBD1FFF710
:100B0C0077FF401B6428F5D9032088E1B3F5A02FAB
:100B1C0009D0644B1A6822F480321A601A6822F4E5
:100B2C0080221A60E1E703F18043A3F53C331A6895
:100B3C0042F480221A601A6842F480321A60D4E7B8
:100B4C00FFF756FF0546574B1B6813F4003FA2D026
:100B5C00FFF74EFF401B6428F5D903205FE1514B92
:100B6C005B6813F4803FA5D14E4B1B6813F0020F4A
:100B7C0003D02369012B40F04F814A4A136823F0BC
:100B8C00F803616943EAC1031360236813F0080F8B
:100B9C0033D0A369002B5CD0434B0122C3F88024D3
:100BAC00FFF726FF05463F4B5B6A13F0020F21D17E
:100BBC00FFF71EFF401B0228F5D903202FE1394A0D
:100BCC00136823F0F803616943EAC1031360DCE79F
:100BDC00354B00221A60FFF70BFF0546314B1B68A3
:100BEC0013F0020FD1D0FFF703FF401B0228F5D9F9
:100BFC00032014E10120FFF701FF236813F0040F19
:100C0C0000F09680274BDB6913F0805F34D1254BC5
:100C1C00DA6942F08052DA61DB6903F080530193A8
:100C2C00019B0125214B1B6813F4807F26D0E368C0
:100C3C00012B3DD0002B53D103F1804303F504333A
:100C4C001A6A22F001021A621A6A22F004021A626B
:100C5C0033E0154B0022C3F88024FFF7C9FE05468C
:100C6C00104B5B6A13F0020FC7D0FFF7C1FE401B9D
:100C7C000228F5D90320D2E00025D3E70B4A1368EC
:100C8C0043F480731360FFF7B3FE0646074B1B68F3
:100C9C0013F4807FCBD1FFF7ABFE801B6428F5D912
:100CAC000320BCE0001002400000424200700040F3
:100CBC005F4A136A43F001031362E36833B3FFF72F
:100CCC0097FE06465A4B1B6A13F0020F2FD1FFF703
:100CDC008FFE801B41F288339842F3D903209EE0AB
:100CEC00052B09D0524B1A6A22F001021A621A6AB9
:100CFC0022F004021A62E0E74D4B1A6A42F0040239
:100D0C001A621A6A42F001021A62D6E7FFF770FE05
:100D1C000646474B1B6A13F0020F08D0FFF768FE1C
:100D2C00801B41F288339842F3D9032077E0E5B970
:100D3C00E369002B72D03E4A526802F00C02082A7A
:100D4C0056D0022B17D03B4B00221A66FFF750FEF1
:100D5C000446374B1B6813F0007F47D0FFF748FE63
:100D6C00001B0228F5D9032059E0314AD36923F03E
:100D7C008053D361DCE72F4B00221A66FFF738FE55
:100D8C0005462B4B1B6813F0007F06D0FFF730FE97
:100D9C00401B0228F5D9032041E0236AB3F5803FBC
:100DAC001AD023494B6823F47413226A606A0243F5
:100DBC0013434B601F4B01221A66FFF719FE0446C2
:100DCC001B4B1B6813F0007F0ED1FFF711FE001BAD
:100DDC000228F5D9032022E0154A536823F4003386
:100DEC00A1680B435360DCE7002018E0002016E0FC
:100DFC00012B16D00E4B5B6803F48031226A9142B2
:100E0C0011D103F47013626A93420ED1002006E0F4
:100E1C0001207047012002E0012000E0002002B018
:100E2C0070BD0120FBE70120F9E70120F7E700BFC7
:100E3C0000100240000042420F4B5B6803F00C02B2
:100E4C00082A01D00D487047C3F383420C49885CD3
:100E5C0013F4803F0BD0084B5B68C3F34043094A43
:100E6C00D35C064A02FB00F0B0FBF3F07047064B74
:100E7C0003FB00F0704700BF0010024000127A0024
:100E8C004C1300085C13000800093D00002800F01A
:100E9C00A08070B50D460446524B1B6803F0070347
:100EAC008B420BD24F4A136823F007030B4313609A
:100EBC00136803F007038B4240F08D80236813F016
:100ECC00020F17D013F0040F04D0474A536843F4B1
:100EDC00E0635360236813F0080F04D0424A536850
:100EEC0043F460535360404A536823F0F003A16805
:100EFC000B435360236813F0010F31D06368012B4F
:100F0C0020D0022B25D0384A126812F0020F64D080
:100F1C0035494A6822F0030213434B60FFF768FD22
:100F2C000646314B5B6803F00C036268B3EB820F2F
:100F3C0016D0FFF75DFD801B41F288339842F0D943
:100F4C00032045E0284A126812F4003FE0D101204A
:100F5C003EE0254A126812F0007FD9D1012037E01B
:100F6C00204B1B6803F00703AB420AD91D4A1368D8
:100F7C0023F007032B431360136803F00703AB4202
:100F8C002DD1236813F0040F06D0174A536823F4AD
:100F9C00E063E1680B435360236813F0080F07D03C
:100FAC00114A536823F46053216943EAC103536027
:100FBC00FFF742FF0C4B5B68C3F303130B4AD35C84
:100FCC00D8400B4B18600B4B1868FFF7CDFC00207A
:100FDC0070BD012070470120FAE70120F8E70120DD
:100FEC00F6E700BF0020024000100240601300082A
:100FFC00080000200400002070B582B00024A44634
:10100C00A6E0804DAA4210D007D97F4DAA420CD041
:10101C0005F58035AA4208D013E0A5F58015AA4243
:10102C0003D005F57025AA4207D18A68002A58D04A
:10103C00012A51D04361082403E0A5F58015AA428A
:10104C00F3D0BEF1FF0F4ED80646BEF1FF0F4CD8C1
:10105C004FEA8C0233680F25954023EA050304FA06
:10106C0002F2134333604B6813F0805F6ED0674B12
:10107C009A6942F001029A619B6903F001030193A2
:10108C00019B4FEA9C02951C614B53F825600CF0B8
:10109C0003039D000F23AB4026EA03065D4B9842E9
:1010AC0029D003F58063984200F08E8003F58063AD
:1010BC00984200F08B8003F58063984219D004238A
:1010CC001AE0CC68BDE7CC680434BAE7CC680834C5
:1010DC00B7E7CC680C34B4E703610824B1E700240B
:1010EC00AFE70424ADE7061DAFE7ACF108029200B0
:1010FC00B0E7032300E00023AB4033430232444DFE
:10110C0045F822304B6813F4801F61D0424A936833
:10111C0043EA0E0393604B6813F4001F5ED03E4A03
:10112C00D36843EA0E03D3604B6813F4003F5BD0E3
:10113C00394A536843EA0E0353604B6813F4803FFB
:10114C0058D0354A136843EA0E0313600CF1010CB6
:10115C000A6832FA0CF353D0012303FA0CF302EAB7
:10116C00030E33EA0202F1D14A68122A3FF649AF64
:10117C00122A3FF666AF01A555F822F03710000889
:10118C00CF100008D9100008EB1000084F10000811
:10119C004F1000084F1000084F1000084F100008A7
:1011AC004F1000084F1000084F1000084F10000897
:1011BC004F1000084F1000084F1000084F10000887
:1011CC00D3100008DF100008012395E7022393E7F2
:1011DC00114A936823EA0E0393609CE70E4AD36886
:1011EC0023EA0E03D3609FE70B4A536823EA0E03EE
:1011FC005360A2E7084A136823EA0E031360A5E7BD
:10120C0002B070BD0000221000003110001002402E
:10121C00000001400008014000040140074AD36867
:10122C0023F4E0631B041B0C000200F4E060034396
:10123C0043F0BF6343F40033D360704700ED00E02C
:10124C0000B5194BDB68C3F30223C3F1070CBCF1E7
:10125C00040F28BF4FF0040C03F1040EBEF1060F6F
:10126C0018D9033B4FF0FF3E0EFA0CFC21EA0C019F
:10127C0099400EFA03F322EA0303194300280BDB0F
:10128C000901C9B200F1604000F5614080F800131B
:10129C005DF804FB0023E5E700F00F000901C9B27B
:1012AC00024B1954F4E700BF00ED00E014ED00E030
:1012BC000138B0F1807F0BD24FF0E0235861054A22
:1012CC00F02182F823100020986107221A617047E0
:1012DC000120704700ED00E070470000FFF7FCFFB5
:1012EC000B480C490C4A002302E0D458C450043378
:1012FC00C4188C42F9D3094A094C002301E013604D
:10130C000432A242FBD3FEF73FFFFFF755F87047BC
:10131C00000000200C000020781300080C000020B6
:10132C0074000020FEE70000F8B500BFF8BC08BC54
:10133C009E467047F8B500BFF8BC08BC9E46704787
:10134C0002030405060708090A0B0C0D0E0F1010FA
:10135C000102000000000000000000000102030474
:04136C00060708095F
:0413700075010008FB
:041374004D0100081F
:0C137800010000001000000000127A00CC
:04000005080012E9F4
:00000001FF
